{
  "_format": "hh-sol-artifact-1",
  "contractName": "LiPage",
  "sourceName": "contracts/lipage.sol",
  "abi": [
    {
      "inputs": [
        {
          "internalType": "address",
          "name": "initialOwner",
          "type": "address"
        },
        {
          "internalType": "string",
          "name": "_name",
          "type": "string"
        },
        {
          "internalType": "string",
          "name": "_symbol",
          "type": "string"
        },
        {
          "internalType": "string",
          "name": "_uri",
          "type": "string"
        },
        {
          "internalType": "uint24",
          "name": "_royaltyAmount",
          "type": "uint24"
        },
        {
          "internalType": "address",
          "name": "_paymentReceiver",
          "type": "address"
        },
        {
          "internalType": "uint256",
          "name": "_mintFee",
          "type": "uint256"
        }
      ],
      "stateMutability": "nonpayable",
      "type": "constructor"
    },
    {
      "inputs": [
        {
          "internalType": "address",
          "name": "operator",
          "type": "address"
        },
        {
          "internalType": "address",
          "name": "owner",
          "type": "address"
        }
      ],
      "name": "ERC1155InsufficientApprovalForAll",
      "type": "error"
    },
    {
      "inputs": [
        {
          "internalType": "address",
          "name": "sender",
          "type": "address"
        },
        {
          "internalType": "uint256",
          "name": "balance",
          "type": "uint256"
        },
        {
          "internalType": "uint256",
          "name": "needed",
          "type": "uint256"
        },
        {
          "internalType": "uint256",
          "name": "tokenId",
          "type": "uint256"
        }
      ],
      "name": "ERC1155InsufficientBalance",
      "type": "error"
    },
    {
      "inputs": [
        {
          "internalType": "address",
          "name": "approver",
          "type": "address"
        }
      ],
      "name": "ERC1155InvalidApprover",
      "type": "error"
    },
    {
      "inputs": [
        {
          "internalType": "uint256",
          "name": "idsLength",
          "type": "uint256"
        },
        {
          "internalType": "uint256",
          "name": "valuesLength",
          "type": "uint256"
        }
      ],
      "name": "ERC1155InvalidArrayLength",
      "type": "error"
    },
    {
      "inputs": [
        {
          "internalType": "address",
          "name": "operator",
          "type": "address"
        }
      ],
      "name": "ERC1155InvalidOperator",
      "type": "error"
    },
    {
      "inputs": [
        {
          "internalType": "address",
          "name": "receiver",
          "type": "address"
        }
      ],
      "name": "ERC1155InvalidReceiver",
      "type": "error"
    },
    {
      "inputs": [
        {
          "internalType": "address",
          "name": "sender",
          "type": "address"
        }
      ],
      "name": "ERC1155InvalidSender",
      "type": "error"
    },
    {
      "inputs": [
        {
          "internalType": "address",
          "name": "owner",
          "type": "address"
        }
      ],
      "name": "OwnableInvalidOwner",
      "type": "error"
    },
    {
      "inputs": [
        {
          "internalType": "address",
          "name": "account",
          "type": "address"
        }
      ],
      "name": "OwnableUnauthorizedAccount",
      "type": "error"
    },
    {
      "anonymous": false,
      "inputs": [
        {
          "indexed": true,
          "internalType": "address",
          "name": "account",
          "type": "address"
        },
        {
          "indexed": true,
          "internalType": "address",
          "name": "operator",
          "type": "address"
        },
        {
          "indexed": false,
          "internalType": "bool",
          "name": "approved",
          "type": "bool"
        }
      ],
      "name": "ApprovalForAll",
      "type": "event"
    },
    {
      "anonymous": false,
      "inputs": [
        {
          "indexed": true,
          "internalType": "uint256",
          "name": "tokenId",
          "type": "uint256"
        },
        {
          "indexed": true,
          "internalType": "address",
          "name": "minter",
          "type": "address"
        },
        {
          "indexed": false,
          "internalType": "uint256",
          "name": "newMinterCount",
          "type": "uint256"
        }
      ],
      "name": "NewMinter",
      "type": "event"
    },
    {
      "anonymous": false,
      "inputs": [
        {
          "indexed": true,
          "internalType": "address",
          "name": "previousOwner",
          "type": "address"
        },
        {
          "indexed": true,
          "internalType": "address",
          "name": "newOwner",
          "type": "address"
        }
      ],
      "name": "OwnershipTransferred",
      "type": "event"
    },
    {
      "anonymous": false,
      "inputs": [
        {
          "indexed": true,
          "internalType": "uint256",
          "name": "tokenId",
          "type": "uint256"
        },
        {
          "indexed": true,
          "internalType": "address",
          "name": "to",
          "type": "address"
        },
        {
          "indexed": false,
          "internalType": "uint256",
          "name": "amount",
          "type": "uint256"
        },
        {
          "indexed": false,
          "internalType": "uint256",
          "name": "totalSupply",
          "type": "uint256"
        }
      ],
      "name": "TokenMinted",
      "type": "event"
    },
    {
      "anonymous": false,
      "inputs": [
        {
          "indexed": true,
          "internalType": "address",
          "name": "operator",
          "type": "address"
        },
        {
          "indexed": true,
          "internalType": "address",
          "name": "from",
          "type": "address"
        },
        {
          "indexed": true,
          "internalType": "address",
          "name": "to",
          "type": "address"
        },
        {
          "indexed": false,
          "internalType": "uint256[]",
          "name": "ids",
          "type": "uint256[]"
        },
        {
          "indexed": false,
          "internalType": "uint256[]",
          "name": "values",
          "type": "uint256[]"
        }
      ],
      "name": "TransferBatch",
      "type": "event"
    },
    {
      "anonymous": false,
      "inputs": [
        {
          "indexed": true,
          "internalType": "address",
          "name": "operator",
          "type": "address"
        },
        {
          "indexed": true,
          "internalType": "address",
          "name": "from",
          "type": "address"
        },
        {
          "indexed": true,
          "internalType": "address",
          "name": "to",
          "type": "address"
        },
        {
          "indexed": false,
          "internalType": "uint256",
          "name": "id",
          "type": "uint256"
        },
        {
          "indexed": false,
          "internalType": "uint256",
          "name": "value",
          "type": "uint256"
        }
      ],
      "name": "TransferSingle",
      "type": "event"
    },
    {
      "anonymous": false,
      "inputs": [
        {
          "indexed": false,
          "internalType": "string",
          "name": "value",
          "type": "string"
        },
        {
          "indexed": true,
          "internalType": "uint256",
          "name": "id",
          "type": "uint256"
        }
      ],
      "name": "URI",
      "type": "event"
    },
    {
      "anonymous": false,
      "inputs": [
        {
          "indexed": true,
          "internalType": "address",
          "name": "operator",
          "type": "address"
        },
        {
          "indexed": false,
          "internalType": "bool",
          "name": "authorized",
          "type": "bool"
        }
      ],
      "name": "UpdateOperator",
      "type": "event"
    },
    {
      "inputs": [
        {
          "internalType": "uint256",
          "name": "",
          "type": "uint256"
        }
      ],
      "name": "_tokenSupply",
      "outputs": [
        {
          "internalType": "uint256",
          "name": "",
          "type": "uint256"
        }
      ],
      "stateMutability": "view",
      "type": "function"
    },
    {
      "inputs": [
        {
          "internalType": "address",
          "name": "account",
          "type": "address"
        },
        {
          "internalType": "uint256",
          "name": "id",
          "type": "uint256"
        }
      ],
      "name": "balanceOf",
      "outputs": [
        {
          "internalType": "uint256",
          "name": "",
          "type": "uint256"
        }
      ],
      "stateMutability": "view",
      "type": "function"
    },
    {
      "inputs": [
        {
          "internalType": "address[]",
          "name": "accounts",
          "type": "address[]"
        },
        {
          "internalType": "uint256[]",
          "name": "ids",
          "type": "uint256[]"
        }
      ],
      "name": "balanceOfBatch",
      "outputs": [
        {
          "internalType": "uint256[]",
          "name": "",
          "type": "uint256[]"
        }
      ],
      "stateMutability": "view",
      "type": "function"
    },
    {
      "inputs": [
        {
          "internalType": "address",
          "name": "from",
          "type": "address"
        },
        {
          "internalType": "uint256",
          "name": "tokenId",
          "type": "uint256"
        },
        {
          "internalType": "uint256",
          "name": "amount",
          "type": "uint256"
        }
      ],
      "name": "burn",
      "outputs": [],
      "stateMutability": "nonpayable",
      "type": "function"
    },
    {
      "inputs": [
        {
          "internalType": "address",
          "name": "from",
          "type": "address"
        },
        {
          "internalType": "uint256[]",
          "name": "_tokenIds",
          "type": "uint256[]"
        },
        {
          "internalType": "uint256[]",
          "name": "_amounts",
          "type": "uint256[]"
        }
      ],
      "name": "burnBatch",
      "outputs": [],
      "stateMutability": "nonpayable",
      "type": "function"
    },
    {
      "inputs": [
        {
          "internalType": "uint256",
          "name": "",
          "type": "uint256"
        }
      ],
      "name": "endTimestamp",
      "outputs": [
        {
          "internalType": "uint256",
          "name": "",
          "type": "uint256"
        }
      ],
      "stateMutability": "view",
      "type": "function"
    },
    {
      "inputs": [
        {
          "internalType": "uint256",
          "name": "tokenId",
          "type": "uint256"
        },
        {
          "internalType": "uint256",
          "name": "_additionalSeconds",
          "type": "uint256"
        }
      ],
      "name": "extendTokenEndTime",
      "outputs": [],
      "stateMutability": "nonpayable",
      "type": "function"
    },
    {
      "inputs": [
        {
          "internalType": "uint256",
          "name": "tokenId",
          "type": "uint256"
        }
      ],
      "name": "getTokenStatus",
      "outputs": [
        {
          "internalType": "uint256",
          "name": "currentSupply",
          "type": "uint256"
        },
        {
          "internalType": "uint256",
          "name": "maxSupplyForToken",
          "type": "uint256"
        },
        {
          "internalType": "uint256",
          "name": "uniqueMinters",
          "type": "uint256"
        },
        {
          "internalType": "bool",
          "name": "isActive",
          "type": "bool"
        },
        {
          "internalType": "bool",
          "name": "isFull",
          "type": "bool"
        },
        {
          "internalType": "uint256",
          "name": "timeRemaining",
          "type": "uint256"
        },
        {
          "internalType": "string",
          "name": "status",
          "type": "string"
        }
      ],
      "stateMutability": "view",
      "type": "function"
    },
    {
      "inputs": [
        {
          "internalType": "uint256",
          "name": "",
          "type": "uint256"
        },
        {
          "internalType": "address",
          "name": "",
          "type": "address"
        }
      ],
      "name": "hasMinted",
      "outputs": [
        {
          "internalType": "bool",
          "name": "",
          "type": "bool"
        }
      ],
      "stateMutability": "view",
      "type": "function"
    },
    {
      "inputs": [
        {
          "internalType": "address",
          "name": "account",
          "type": "address"
        },
        {
          "internalType": "address",
          "name": "operator",
          "type": "address"
        }
      ],
      "name": "isApprovedForAll",
      "outputs": [
        {
          "internalType": "bool",
          "name": "",
          "type": "bool"
        }
      ],
      "stateMutability": "view",
      "type": "function"
    },
    {
      "inputs": [
        {
          "internalType": "uint256",
          "name": "",
          "type": "uint256"
        }
      ],
      "name": "maxMinted",
      "outputs": [
        {
          "internalType": "uint256",
          "name": "",
          "type": "uint256"
        }
      ],
      "stateMutability": "view",
      "type": "function"
    },
    {
      "inputs": [
        {
          "internalType": "uint256",
          "name": "",
          "type": "uint256"
        }
      ],
      "name": "maxSupply",
      "outputs": [
        {
          "internalType": "uint256",
          "name": "",
          "type": "uint256"
        }
      ],
      "stateMutability": "view",
      "type": "function"
    },
    {
      "inputs": [
        {
          "internalType": "address",
          "name": "to",
          "type": "address"
        },
        {
          "internalType": "uint256",
          "name": "tokenId",
          "type": "uint256"
        },
        {
          "internalType": "uint256",
          "name": "amount",
          "type": "uint256"
        }
      ],
      "name": "mint",
      "outputs": [],
      "stateMutability": "payable",
      "type": "function"
    },
    {
      "inputs": [
        {
          "internalType": "address",
          "name": "to",
          "type": "address"
        },
        {
          "internalType": "uint256[]",
          "name": "_tokenIds",
          "type": "uint256[]"
        },
        {
          "internalType": "uint256[]",
          "name": "_amounts",
          "type": "uint256[]"
        }
      ],
      "name": "mintBatch",
      "outputs": [],
      "stateMutability": "payable",
      "type": "function"
    },
    {
      "inputs": [],
      "name": "mintFee",
      "outputs": [
        {
          "internalType": "uint256",
          "name": "",
          "type": "uint256"
        }
      ],
      "stateMutability": "view",
      "type": "function"
    },
    {
      "inputs": [
        {
          "internalType": "uint256",
          "name": "",
          "type": "uint256"
        }
      ],
      "name": "minterCount",
      "outputs": [
        {
          "internalType": "uint256",
          "name": "",
          "type": "uint256"
        }
      ],
      "stateMutability": "view",
      "type": "function"
    },
    {
      "inputs": [],
      "name": "name",
      "outputs": [
        {
          "internalType": "string",
          "name": "",
          "type": "string"
        }
      ],
      "stateMutability": "view",
      "type": "function"
    },
    {
      "inputs": [],
      "name": "owner",
      "outputs": [
        {
          "internalType": "address",
          "name": "",
          "type": "address"
        }
      ],
      "stateMutability": "view",
      "type": "function"
    },
    {
      "inputs": [],
      "name": "paymentReceiver",
      "outputs": [
        {
          "internalType": "address",
          "name": "",
          "type": "address"
        }
      ],
      "stateMutability": "view",
      "type": "function"
    },
    {
      "inputs": [],
      "name": "renounceOwnership",
      "outputs": [],
      "stateMutability": "nonpayable",
      "type": "function"
    },
    {
      "inputs": [
        {
          "internalType": "uint256",
          "name": "tokenId",
          "type": "uint256"
        },
        {
          "internalType": "uint256",
          "name": "salePrice",
          "type": "uint256"
        }
      ],
      "name": "royaltyInfo",
      "outputs": [
        {
          "internalType": "address",
          "name": "",
          "type": "address"
        },
        {
          "internalType": "uint256",
          "name": "",
          "type": "uint256"
        }
      ],
      "stateMutability": "view",
      "type": "function"
    },
    {
      "inputs": [
        {
          "internalType": "address",
          "name": "from",
          "type": "address"
        },
        {
          "internalType": "address",
          "name": "to",
          "type": "address"
        },
        {
          "internalType": "uint256[]",
          "name": "ids",
          "type": "uint256[]"
        },
        {
          "internalType": "uint256[]",
          "name": "amounts",
          "type": "uint256[]"
        },
        {
          "internalType": "bytes",
          "name": "data",
          "type": "bytes"
        }
      ],
      "name": "safeBatchTransferFrom",
      "outputs": [],
      "stateMutability": "nonpayable",
      "type": "function"
    },
    {
      "inputs": [
        {
          "internalType": "address",
          "name": "from",
          "type": "address"
        },
        {
          "internalType": "address",
          "name": "to",
          "type": "address"
        },
        {
          "internalType": "uint256",
          "name": "id",
          "type": "uint256"
        },
        {
          "internalType": "uint256",
          "name": "amount",
          "type": "uint256"
        },
        {
          "internalType": "bytes",
          "name": "data",
          "type": "bytes"
        }
      ],
      "name": "safeTransferFrom",
      "outputs": [],
      "stateMutability": "nonpayable",
      "type": "function"
    },
    {
      "inputs": [
        {
          "internalType": "address",
          "name": "operator",
          "type": "address"
        },
        {
          "internalType": "bool",
          "name": "approved",
          "type": "bool"
        }
      ],
      "name": "setApprovalForAll",
      "outputs": [],
      "stateMutability": "nonpayable",
      "type": "function"
    },
    {
      "inputs": [
        {
          "internalType": "uint256",
          "name": "_mintFee",
          "type": "uint256"
        }
      ],
      "name": "setMintFee",
      "outputs": [],
      "stateMutability": "nonpayable",
      "type": "function"
    },
    {
      "inputs": [
        {
          "internalType": "address",
          "name": "_paymentReceiver",
          "type": "address"
        }
      ],
      "name": "setPaymentReceiver",
      "outputs": [],
      "stateMutability": "nonpayable",
      "type": "function"
    },
    {
      "inputs": [
        {
          "internalType": "uint24",
          "name": "_amount",
          "type": "uint24"
        }
      ],
      "name": "setRoyaltyAmount",
      "outputs": [],
      "stateMutability": "nonpayable",
      "type": "function"
    },
    {
      "inputs": [
        {
          "internalType": "address",
          "name": "_router",
          "type": "address"
        }
      ],
      "name": "setTabiSwapRouter",
      "outputs": [],
      "stateMutability": "nonpayable",
      "type": "function"
    },
    {
      "inputs": [
        {
          "internalType": "uint256",
          "name": "tokenId",
          "type": "uint256"
        },
        {
          "internalType": "uint256",
          "name": "_maxSupply",
          "type": "uint256"
        },
        {
          "internalType": "uint256",
          "name": "_startTimestamp",
          "type": "uint256"
        },
        {
          "internalType": "uint256",
          "name": "_duration",
          "type": "uint256"
        }
      ],
      "name": "setTokenConfig",
      "outputs": [],
      "stateMutability": "nonpayable",
      "type": "function"
    },
    {
      "inputs": [
        {
          "internalType": "uint256",
          "name": "tokenId",
          "type": "uint256"
        },
        {
          "internalType": "uint256",
          "name": "_endTimestamp",
          "type": "uint256"
        }
      ],
      "name": "setTokenEndTimestamp",
      "outputs": [],
      "stateMutability": "nonpayable",
      "type": "function"
    },
    {
      "inputs": [
        {
          "internalType": "uint256",
          "name": "tokenId",
          "type": "uint256"
        },
        {
          "internalType": "uint256",
          "name": "_maxSupply",
          "type": "uint256"
        }
      ],
      "name": "setTokenMaxSupply",
      "outputs": [],
      "stateMutability": "nonpayable",
      "type": "function"
    },
    {
      "inputs": [
        {
          "internalType": "uint256",
          "name": "tokenId",
          "type": "uint256"
        },
        {
          "internalType": "uint256",
          "name": "_startTimestamp",
          "type": "uint256"
        }
      ],
      "name": "setTokenStartTimestamp",
      "outputs": [],
      "stateMutability": "nonpayable",
      "type": "function"
    },
    {
      "inputs": [
        {
          "internalType": "string",
          "name": "_uri",
          "type": "string"
        }
      ],
      "name": "setURI",
      "outputs": [],
      "stateMutability": "nonpayable",
      "type": "function"
    },
    {
      "inputs": [
        {
          "internalType": "uint256",
          "name": "",
          "type": "uint256"
        }
      ],
      "name": "startTimestamp",
      "outputs": [
        {
          "internalType": "uint256",
          "name": "",
          "type": "uint256"
        }
      ],
      "stateMutability": "view",
      "type": "function"
    },
    {
      "inputs": [
        {
          "internalType": "bytes4",
          "name": "interfaceId",
          "type": "bytes4"
        }
      ],
      "name": "supportsInterface",
      "outputs": [
        {
          "internalType": "bool",
          "name": "",
          "type": "bool"
        }
      ],
      "stateMutability": "view",
      "type": "function"
    },
    {
      "inputs": [],
      "name": "symbol",
      "outputs": [
        {
          "internalType": "string",
          "name": "",
          "type": "string"
        }
      ],
      "stateMutability": "view",
      "type": "function"
    },
    {
      "inputs": [],
      "name": "tabiSwapRouter",
      "outputs": [
        {
          "internalType": "contract ITabiSwapRouter",
          "name": "",
          "type": "address"
        }
      ],
      "stateMutability": "view",
      "type": "function"
    },
    {
      "inputs": [
        {
          "internalType": "uint256",
          "name": "tokenId",
          "type": "uint256"
        }
      ],
      "name": "totalSupply",
      "outputs": [
        {
          "internalType": "uint256",
          "name": "",
          "type": "uint256"
        }
      ],
      "stateMutability": "view",
      "type": "function"
    },
    {
      "inputs": [
        {
          "internalType": "address",
          "name": "newOwner",
          "type": "address"
        }
      ],
      "name": "transferOwnership",
      "outputs": [],
      "stateMutability": "nonpayable",
      "type": "function"
    },
    {
      "inputs": [
        {
          "internalType": "address",
          "name": "operator",
          "type": "address"
        },
        {
          "internalType": "bool",
          "name": "authorized",
          "type": "bool"
        }
      ],
      "name": "updateOperator",
      "outputs": [],
      "stateMutability": "nonpayable",
      "type": "function"
    },
    {
      "inputs": [
        {
          "internalType": "uint256",
          "name": "_tokenId",
          "type": "uint256"
        }
      ],
      "name": "uri",
      "outputs": [
        {
          "internalType": "string",
          "name": "",
          "type": "string"
        }
      ],
      "stateMutability": "view",
      "type": "function"
    },
    {
      "inputs": [],
      "name": "withdrawFunds",
      "outputs": [],
      "stateMutability": "nonpayable",
      "type": "function"
    }
  ],
  "bytecode": "0x60806040523480156200001157600080fd5b506040516200360f3803806200360f83398101604081905262000034916200026e565b60408051602081019091526000815287906200005081620000db565b506200005c81620000ed565b5060056200006b8782620003da565b5060066200007a8682620003da565b5062000086846200013f565b6011805462ffffff909416600160a01b026001600160b81b03199094166001600160a01b03988916179390931790925560088054919096166001600160a01b03199190911617909455505050600955620004a6565b6002620000e98282620003da565b5050565b600380546001600160a01b038381166001600160a01b0319831681179093556040519116919082907f8be0079c531659141344cd1fd0a4f28419497f9722a3daafe3b4186f6b6457e090600090a35050565b6200014962000157565b6007620000e98282620003da565b6003546001600160a01b031633146200018a576040805163118cdaa760e01b815233600482015290519081900360240190fd5b565b80516001600160a01b0381168114620001a457600080fd5b919050565b634e487b7160e01b600052604160045260246000fd5b600082601f830112620001d157600080fd5b81516001600160401b0380821115620001ee57620001ee620001a9565b604051601f8301601f19908116603f01168101908282118183101715620002195762000219620001a9565b816040528381526020925086838588010111156200023657600080fd5b600091505b838210156200025a57858201830151818301840152908201906200023b565b600093810190920192909252949350505050565b600080600080600080600060e0888a0312156200028a57600080fd5b62000295886200018c565b60208901519097506001600160401b0380821115620002b357600080fd5b620002c18b838c01620001bf565b975060408a0151915080821115620002d857600080fd5b620002e68b838c01620001bf565b965060608a0151915080821115620002fd57600080fd5b506200030c8a828b01620001bf565b945050608088015162ffffff811681146200032657600080fd5b92506200033660a089016200018c565b915060c0880151905092959891949750929550565b600181811c908216806200036057607f821691505b6020821081036200038157634e487b7160e01b600052602260045260246000fd5b50919050565b601f821115620003d557600081815260208120601f850160051c81016020861015620003b05750805b601f850160051c820191505b81811015620003d157828155600101620003bc565b5050505b505050565b81516001600160401b03811115620003f657620003f6620001a9565b6200040e816200040784546200034b565b8462000387565b602080601f8311600181146200044657600084156200042d5750858301515b600019600386901b1c1916600185901b178555620003d1565b600085815260208120601f198616915b82811015620004775788860151825594840194600190910190840162000456565b5085821015620004965787850151600019600388901b60f8161c191681555b5050505050600190811b01905550565b61315980620004b66000396000f3fe6080604052600436106102505760003560e01c80636d44a3b211610139578063b6ea4671116100b6578063d81d0a151161007a578063d81d0a151461078f578063e985e9c5146107a2578063eddd0d9c146107eb578063f242432a1461080b578063f2fde38b1461082b578063f5298aca1461084b57600080fd5b8063b6ea4671146106d5578063bd85b039146106f5578063cb37f3b214610722578063cc3919e814610742578063d12a0e4c1461076257600080fd5b80638ae15d99116100fd5780638ae15d991461062f5780638da5cb5b1461064f5780638f07c2b41461066d57806395d89b41146106a0578063a22cb465146106b557600080fd5b80636d44a3b21461058d5780636e563f4e146105ad5780636ef4e7ee146105cd578063715018a6146105ed578063869f75941461060257600080fd5b806315dbb015116101d257806338baa7d01161019657806338baa7d01461049b5780634b88a570146104c85780634e1273f41461050057806352a284a21461052d57806365ebf99a1461054d5780636b20c4541461056d57600080fd5b806315dbb015146103cd57806324600fc3146103fa5780632a55205a1461040f5780632eb2c2d61461044e57806335e727b31461046e57600080fd5b806306fdde031161021957806306fdde03146103425780630e89341c146103645780631218ee111461038457806313966db5146103a4578063156e29f6146103ba57600080fd5b8062fdd58e14610255578063014d41151461028857806301ffc9a7146102b557806302fe5305146102e55780630378073314610307575b600080fd5b34801561026157600080fd5b506102756102703660046126ad565b61086b565b6040519081526020015b60405180910390f35b34801561029457600080fd5b506102756102a33660046126d7565b600e6020526000908152604090205481565b3480156102c157600080fd5b506102d56102d0366004612706565b610893565b604051901515815260200161027f565b3480156102f157600080fd5b506103056103003660046127c9565b6108b8565b005b34801561031357600080fd5b506102d561032236600461281a565b600f60209081526000928352604080842090915290825290205460ff1681565b34801561034e57600080fd5b506103576108d0565b60405161027f9190612896565b34801561037057600080fd5b5061035761037f3660046126d7565b61095e565b34801561039057600080fd5b5061030561039f3660046128a9565b6109bc565b3480156103b057600080fd5b5061027560095481565b6103056103c83660046128db565b610a04565b3480156103d957600080fd5b506102756103e83660046126d7565b600d6020526000908152604090205481565b34801561040657600080fd5b50610305610f67565b34801561041b57600080fd5b5061042f61042a36600461290e565b61104b565b604080516001600160a01b03909316835260208301919091520161027f565b34801561045a57600080fd5b506103056104693660046129df565b6110a4565b34801561047a57600080fd5b506102756104893660046126d7565b60106020526000908152604090205481565b3480156104a757600080fd5b506102756104b63660046126d7565b600b6020526000908152604090205481565b3480156104d457600080fd5b506012546104e8906001600160a01b031681565b6040516001600160a01b03909116815260200161027f565b34801561050c57600080fd5b5061052061051b366004612a89565b61110c565b60405161027f9190612b84565b34801561053957600080fd5b50610305610548366004612b97565b6111e1565b34801561055957600080fd5b50610305610568366004612bbc565b61120d565b34801561057957600080fd5b50610305610588366004612bd7565b61127f565b34801561059957600080fd5b506103056105a8366004612c4b565b61132b565b3480156105b957600080fd5b506103056105c8366004612bbc565b611407565b3480156105d957600080fd5b506103056105e836600461290e565b611431565b3480156105f957600080fd5b5061030561144b565b34801561060e57600080fd5b5061027561061d3660046126d7565b600a6020526000908152604090205481565b34801561063b57600080fd5b5061030561064a36600461290e565b61145f565b34801561065b57600080fd5b506003546001600160a01b03166104e8565b34801561067957600080fd5b5061068d6106883660046126d7565b61148e565b60405161027f9796959493929190612c87565b3480156106ac57600080fd5b5061035761164d565b3480156106c157600080fd5b506103056106d0366004612c4b565b61165a565b3480156106e157600080fd5b506103056106f036600461290e565b611665565b34801561070157600080fd5b506102756107103660046126d7565b6000908152600e602052604090205490565b34801561072e57600080fd5b506008546104e8906001600160a01b031681565b34801561074e57600080fd5b5061030561075d36600461290e565b61167f565b34801561076e57600080fd5b5061027561077d3660046126d7565b600c6020526000908152604090205481565b61030561079d366004612bd7565b611699565b3480156107ae57600080fd5b506102d56107bd366004612ccf565b6001600160a01b03918216600090815260016020908152604080832093909416825291909152205460ff1690565b3480156107f757600080fd5b506103056108063660046126d7565b611c4c565b34801561081757600080fd5b50610305610826366004612cf9565b611c59565b34801561083757600080fd5b50610305610846366004612bbc565b611c91565b34801561085757600080fd5b506103056108663660046128db565b611ccf565b6000818152602081815260408083206001600160a01b03861684529091529020545b92915050565b600063152a902d60e11b6001600160e01b03198316148061088d575061088d82611d18565b6108c0611d68565b60076108cc8282612dde565b5050565b600580546108dd90612d5e565b80601f016020809104026020016040519081016040528092919081815260200182805461090990612d5e565b80156109565780601f1061092b57610100808354040283529160200191610956565b820191906000526020600020905b81548152906001019060200180831161093957829003601f168201915b505050505081565b60606007805461096d90612d5e565b905060000361098b576040518060200160405280600081525061088d565b600761099683611d95565b6040516020016109a7929190612e9e565b60405160208183030381529060405292915050565b6109c4611d68565b6000848152600a60209081526040808320869055600b90915290208290556109ec8183612f4b565b6000948552600c602052604090942093909355505050565b6000828152600b60205260409020548290610a785760405162461bcd60e51b815260206004820152602960248201527f4d696e74696e672073746172742074696d65206e6f742073657420666f7220746044820152683434b9903a37b5b2b760b91b60648201526084015b60405180910390fd5b6000818152600b6020526040902054421015610ae95760405162461bcd60e51b815260206004820152602a60248201527f4d696e74696e6720686173206e6f7420737461727465642079657420666f72206044820152693a3434b9903a37b5b2b760b11b6064820152608401610a6f565b6000818152600c6020526040902054421115610b575760405162461bcd60e51b815260206004820152602760248201527f4d696e74696e6720706572696f642068617320656e64656420666f722074686960448201526639903a37b5b2b760c91b6064820152608401610a6f565b6000818152600a6020526040902054610bbc5760405162461bcd60e51b815260206004820152602160248201527f4d617820737570706c79206e6f742073657420666f72207468697320746f6b656044820152603760f91b6064820152608401610a6f565b6012546001600160a01b0316610c055760405162461bcd60e51b815260206004820152600e60248201526d149bdd5d195c881b9bdd081cd95d60921b6044820152606401610a6f565b60125460405163715e86b560e01b81526001600160a01b038681166004830152600392169063715e86b590602401602060405180830381865afa158015610c50573d6000803e3d6000fd5b505050506040513d601f19601f82011682018060405250810190610c749190612f5e565b1015610c925760405162461bcd60e51b8152600401610a6f90612f77565b6003546001600160a01b03163314610d8e5781600954610cb29190612fba565b341015610cf85760405162461bcd60e51b8152602060048201526014602482015273125b9cdd59999a58da595b9d081c185e5b595b9d60621b6044820152606401610a6f565b6008546040516000916001600160a01b03169034908381818185875af1925050503d8060008114610d45576040519150601f19603f3d011682016040523d82523d6000602084013e610d4a565b606091505b5050905080610d8c5760405162461bcd60e51b815260206004820152600e60248201526d14185e5b595b9d0819985a5b195960921b6044820152606401610a6f565b505b6000838152600a6020908152604080832054600e90925290912054610db4908490612f4b565b1115610e025760405162461bcd60e51b815260206004820181905260248201527f457863656564206d617820737570706c7920666f72207468697320746f6b656e6044820152606401610a6f565b6000838152600f602090815260408083206001600160a01b038816845290915290205460ff16610ecd576000838152600f602090815260408083206001600160a01b03881684528252808320805460ff1916600190811790915586845260109092528220805491929091610e77908490612f4b565b90915550506000838152601060209081526040918290205491519182526001600160a01b0386169185917f4649e96547c3c34ff830265c7fe66a7f1bd53296c1f6f37f5201e01c8175a5df910160405180910390a35b6000838152600e602052604081208054849290610eeb908490612f4b565b92505081905550610f0d84848460405180602001604052806000815250611e28565b6000838152600e6020908152604091829020548251858152918201526001600160a01b0386169185917f81fd5f457056a8b19e623dc52551a385bfcafd0914d3942446ecab71d19b123b910160405180910390a350505050565b610f6f611d68565b4780610fb45760405162461bcd60e51b81526020600482015260146024820152734e6f2066756e647320746f20776974686472617760601b6044820152606401610a6f565b6008546040516000916001600160a01b03169083908381818185875af1925050503d8060008114611001576040519150601f19603f3d011682016040523d82523d6000602084013e611006565b606091505b50509050806108cc5760405162461bcd60e51b815260206004820152601160248201527015da5d1a191c985dd85b0819985a5b1959607a1b6044820152606401610a6f565b604080518082019091526011546001600160a01b0381168252600160a01b900462ffffff1660208201819052600091829182906127109061108c9087612fba565b6110969190612fd1565b915196919550909350505050565b6001600160a01b03851633148015906110c457506110c285336107bd565b155b156110f857335b60405163313dd6cb60e01b81526001600160a01b0391821660048201529086166024820152604401610a6f565b6111058585858585611e8d565b5050505050565b6060815183511461113d5781518351604051635b05999160e01b815260048101929092526024820152604401610a6f565b6000835167ffffffffffffffff8111156111595761115961272a565b604051908082528060200260200182016040528015611182578160200160208202803683370190505b50905060005b84518110156111d9576020808202860101516111ac9060208084028701015161086b565b8282815181106111be576111be612ff3565b60209081029190910101526111d281613009565b9050611188565b509392505050565b6111e9611d68565b6011805462ffffff909216600160a01b0262ffffff60a01b19909216919091179055565b611215611d68565b6001600160a01b03811661125d5760405162461bcd60e51b815260206004820152600f60248201526e496e76616c6964206164647265737360881b6044820152606401610a6f565b600880546001600160a01b0319166001600160a01b0392909216919091179055565b61128a838383611eed565b60005b82518110156113255760008382815181106112aa576112aa612ff3565b6020026020010151905060008383815181106112c8576112c8612ff3565b6020026020010151905080600e60008481526020019081526020016000205410611310576000828152600e60205260408120805483929061130a908490613022565b90915550505b5050808061131d90613009565b91505061128d565b50505050565b611333611d68565b6001600160a01b0382166113975760405162461bcd60e51b815260206004820152602560248201527f4f776e61626c653a206f70657261746f7220697320746865207a65726f206164604482015264647265737360d81b6064820152608401610a6f565b816001600160a01b03167f2ee52be9d342458b3d25e07faada7ff9bc06723b4aa24edb6321ac1316b8a9dd826040516113d4911515815260200190565b60405180910390a26001600160a01b03919091166000908152600460205260409020805460ff1916911515919091179055565b61140f611d68565b601280546001600160a01b0319166001600160a01b0392909216919091179055565b611439611d68565b6000918252600b602052604090912055565b611453611d68565b61145d6000611f33565b565b611467611d68565b6000828152600c602052604081208054839290611485908490612f4b565b90915550505050565b6000818152600e6020908152604080832054600a8352818420546010845282852054600b9094529184205490939192919081908190606090829042108015906114e557506000898152600c60205260409020544211155b90508688101593508080156114f8575083155b80156115045750600087115b60008a8152600c6020526040902054909550421061152357600061153d565b6000898152600c602052604090205461153d904290613022565b925086600003611575576040518060400160405280600e81526020016d139bdd0818dbdb999a59dd5c995960921b8152509150611641565b83156115a3576040518060400160405280600881526020016714dbdb19081bdd5d60c21b8152509150611641565b6000898152600b60205260409020544210156115e4576040518060400160405280600b81526020016a139bdd081cdd185c9d195960aa1b8152509150611641565b6000898152600c602052604090205442111561161f5760405180604001604052806005815260200164115b99195960da1b8152509150611641565b6040518060400160405280600681526020016541637469766560d01b81525091505b50919395979092949650565b600680546108dd90612d5e565b6108cc338383611f85565b61166d611d68565b6000918252600a602052604090912055565b611687611d68565b6000918252600c602052604090912055565b6012546001600160a01b03166116e25760405162461bcd60e51b815260206004820152600e60248201526d149bdd5d195c881b9bdd081cd95d60921b6044820152606401610a6f565b60125460405163715e86b560e01b81526001600160a01b038581166004830152600392169063715e86b590602401602060405180830381865afa15801561172d573d6000803e3d6000fd5b505050506040513d601f19601f820116820180604052508101906117519190612f5e565b101561176f5760405162461bcd60e51b8152600401610a6f90612f77565b80518251146117b95760405162461bcd60e51b8152602060048201526016602482015275082e4e4c2f2e640d8cadccee8d040dad2e6dac2e8c6d60531b6044820152606401610a6f565b6000805b82518110156117ff578281815181106117d8576117d8612ff3565b6020026020010151826117eb9190612f4b565b9150806117f781613009565b9150506117bd565b506003546001600160a01b031633146118fc57806009546118209190612fba565b3410156118665760405162461bcd60e51b8152602060048201526014602482015273125b9cdd59999a58da595b9d081c185e5b595b9d60621b6044820152606401610a6f565b6008546040516000916001600160a01b03169034908381818185875af1925050503d80600081146118b3576040519150601f19603f3d011682016040523d82523d6000602084013e6118b8565b606091505b50509050806118fa5760405162461bcd60e51b815260206004820152600e60248201526d14185e5b595b9d0819985a5b195960921b6044820152606401610a6f565b505b60005b8351811015611c3057600084828151811061191c5761191c612ff3565b60200260200101519050600084838151811061193a5761193a612ff3565b602002602001015190506000600b6000848152602001908152602001600020541161199e5760405162461bcd60e51b8152602060048201526014602482015273151bdad95b881b9bdd0818dbdb999a59dd5c995960621b6044820152606401610a6f565b6000828152600b6020526040902054421015611a075760405162461bcd60e51b815260206004820152602260248201527f4d696e74696e67206e6f74207374617274656420666f72207468697320746f6b60448201526132b760f11b6064820152608401610a6f565b6000828152600c6020526040902054421115611a655760405162461bcd60e51b815260206004820152601c60248201527f4d696e74696e6720656e64656420666f72207468697320746f6b656e000000006044820152606401610a6f565b6000828152600a6020908152604080832054600e90925290912054611a8b908390612f4b565b1115611ad95760405162461bcd60e51b815260206004820181905260248201527f457863656564206d617820737570706c7920666f72207468697320746f6b656e6044820152606401610a6f565b6000828152600f602090815260408083206001600160a01b038b16845290915290205460ff16611ba4576000828152600f602090815260408083206001600160a01b038b1684528252808320805460ff1916600190811790915585845260109092528220805491929091611b4e908490612f4b565b90915550506000828152601060209081526040918290205491519182526001600160a01b0389169184917f4649e96547c3c34ff830265c7fe66a7f1bd53296c1f6f37f5201e01c8175a5df910160405180910390a35b6000828152600e602052604081208054839290611bc2908490612f4b565b90915550506000828152600e6020908152604091829020548251848152918201526001600160a01b0389169184917f81fd5f457056a8b19e623dc52551a385bfcafd0914d3942446ecab71d19b123b910160405180910390a350508080611c2890613009565b9150506118ff565b506113258484846040518060200160405280600081525061202e565b611c54611d68565b600955565b6001600160a01b0385163314801590611c795750611c7785336107bd565b155b15611c8457336110cb565b6111058585858585612066565b611c99611d68565b6001600160a01b038116611cc357604051631e4fbdf760e01b815260006004820152602401610a6f565b611ccc81611f33565b50565b611cda8383836120f4565b6000828152600e60205260409020548111611d13576000828152600e602052604081208054839290611d0d908490613022565b90915550505b505050565b60006001600160e01b03198216636cdb3d1360e11b1480611d4957506001600160e01b031982166303a24d0760e21b145b8061088d57506301ffc9a760e01b6001600160e01b031983161461088d565b6003546001600160a01b0316331461145d5760405163118cdaa760e01b8152336004820152602401610a6f565b60606000611da28361215c565b600101905060008167ffffffffffffffff811115611dc257611dc261272a565b6040519080825280601f01601f191660200182016040528015611dec576020820181803683370190505b5090508181016020015b600019016f181899199a1a9b1b9c1cb0b131b232b360811b600a86061a8153600a8504945084611df657509392505050565b6001600160a01b038416611e5257604051632bfa23e760e11b815260006004820152602401610a6f565b60408051600180825260208201869052818301908152606082018590526080820190925290611e85600087848487612234565b505050505050565b6001600160a01b038416611eb757604051632bfa23e760e11b815260006004820152602401610a6f565b6001600160a01b038516611ee057604051626a0d4560e21b815260006004820152602401610a6f565b6111058585858585612234565b6001600160a01b038316611f1657604051626a0d4560e21b815260006004820152602401610a6f565b611d13836000848460405180602001604052806000815250612234565b600380546001600160a01b038381166001600160a01b0319831681179093556040519116919082907f8be0079c531659141344cd1fd0a4f28419497f9722a3daafe3b4186f6b6457e090600090a35050565b816001600160a01b0316836001600160a01b031603611fc15760405162ced3e160e81b81526001600160a01b0383166004820152602401610a6f565b6001600160a01b03838116600081815260016020908152604080832094871680845294825291829020805460ff191686151590811790915591519182527f17307eab39ab6107e8899845ad3d59bd9653f200f220920489ca2b5937696c31910160405180910390a3505050565b6001600160a01b03841661205857604051632bfa23e760e11b815260006004820152602401610a6f565b611325600085858585612234565b6001600160a01b03841661209057604051632bfa23e760e11b815260006004820152602401610a6f565b6001600160a01b0385166120b957604051626a0d4560e21b815260006004820152602401610a6f565b604080516001808252602082018690528183019081526060820185905260808201909252906120eb8787848487612234565b50505050505050565b6001600160a01b03831661211d57604051626a0d4560e21b815260006004820152602401610a6f565b604080516001808252602082018590528183019081526060820184905260a0820190925260006080820181815291929161110591879185908590612234565b60008072184f03e93ff9f4daa797ed6e38ed64bf6a1f0160401b831061219b5772184f03e93ff9f4daa797ed6e38ed64bf6a1f0160401b830492506040015b6d04ee2d6d415b85acef810000000083106121c7576d04ee2d6d415b85acef8100000000830492506020015b662386f26fc1000083106121e557662386f26fc10000830492506010015b6305f5e10083106121fd576305f5e100830492506008015b612710831061221157612710830492506004015b60648310612223576064830492506002015b600a831061088d5760010192915050565b81518351146122635782518251604051635b05999160e01b815260048101929092526024820152604401610a6f565b3360005b8451811015612372576020818102868101820151908601909101516001600160a01b0389161561231a576000828152602081815260408083206001600160a01b038d168452909152902054818110156122f3576040516303dee4c560e01b81526001600160a01b038b166004820152602481018290526044810183905260648101849052608401610a6f565b6000838152602081815260408083206001600160a01b038e16845290915290209082900390555b6001600160a01b0388161561235f576000828152602081815260408083206001600160a01b038c16845290915281208054839290612359908490612f4b565b90915550505b50508061236b90613009565b9050612267565b5083516001036124105760208401516000906020850151909150866001600160a01b0316886001600160a01b0316846001600160a01b03167fc3d58168c5ae7397731d063d5bbf3d657854427343f4c083240f7aacaa2d0f6285856040516123e4929190918252602082015260400190565b60405180910390a46001600160a01b0387161561240957612409838989858589612484565b5050611e85565b846001600160a01b0316866001600160a01b0316826001600160a01b03167f4a39dc06d4c0dbc64b70af90fd698a233a518aa5d07e595d983b8c0526c8f7fb878760405161245f929190613035565b60405180910390a46001600160a01b03851615611e8557611e858187878787876125a8565b6001600160a01b0384163b15611e855760405163f23a6e6160e01b81526001600160a01b0385169063f23a6e61906124c89089908990889088908890600401613063565b6020604051808303816000875af1925050508015612503575060408051601f3d908101601f19168201909252612500918101906130a8565b60015b61256c573d808015612531576040519150601f19603f3d011682016040523d82523d6000602084013e612536565b606091505b50805160000361256457604051632bfa23e760e11b81526001600160a01b0386166004820152602401610a6f565b805181602001fd5b6001600160e01b0319811663f23a6e6160e01b146120eb57604051632bfa23e760e11b81526001600160a01b0386166004820152602401610a6f565b6001600160a01b0384163b15611e855760405163bc197c8160e01b81526001600160a01b0385169063bc197c81906125ec90899089908890889088906004016130c5565b6020604051808303816000875af1925050508015612627575060408051601f3d908101601f19168201909252612624918101906130a8565b60015b612655573d808015612531576040519150601f19603f3d011682016040523d82523d6000602084013e612536565b6001600160e01b0319811663bc197c8160e01b146120eb57604051632bfa23e760e11b81526001600160a01b0386166004820152602401610a6f565b80356001600160a01b03811681146126a857600080fd5b919050565b600080604083850312156126c057600080fd5b6126c983612691565b946020939093013593505050565b6000602082840312156126e957600080fd5b5035919050565b6001600160e01b031981168114611ccc57600080fd5b60006020828403121561271857600080fd5b8135612723816126f0565b9392505050565b634e487b7160e01b600052604160045260246000fd5b604051601f8201601f1916810167ffffffffffffffff811182821017156127695761276961272a565b604052919050565b600067ffffffffffffffff83111561278b5761278b61272a565b61279e601f8401601f1916602001612740565b90508281528383830111156127b257600080fd5b828260208301376000602084830101529392505050565b6000602082840312156127db57600080fd5b813567ffffffffffffffff8111156127f257600080fd5b8201601f8101841361280357600080fd5b61281284823560208401612771565b949350505050565b6000806040838503121561282d57600080fd5b8235915061283d60208401612691565b90509250929050565b60005b83811015612861578181015183820152602001612849565b50506000910152565b60008151808452612882816020860160208601612846565b601f01601f19169290920160200192915050565b602081526000612723602083018461286a565b600080600080608085870312156128bf57600080fd5b5050823594602084013594506040840135936060013592509050565b6000806000606084860312156128f057600080fd5b6128f984612691565b95602085013595506040909401359392505050565b6000806040838503121561292157600080fd5b50508035926020909101359150565b600067ffffffffffffffff82111561294a5761294a61272a565b5060051b60200190565b600082601f83011261296557600080fd5b8135602061297a61297583612930565b612740565b82815260059290921b8401810191818101908684111561299957600080fd5b8286015b848110156129b4578035835291830191830161299d565b509695505050505050565b600082601f8301126129d057600080fd5b61272383833560208501612771565b600080600080600060a086880312156129f757600080fd5b612a0086612691565b9450612a0e60208701612691565b9350604086013567ffffffffffffffff80821115612a2b57600080fd5b612a3789838a01612954565b94506060880135915080821115612a4d57600080fd5b612a5989838a01612954565b93506080880135915080821115612a6f57600080fd5b50612a7c888289016129bf565b9150509295509295909350565b60008060408385031215612a9c57600080fd5b823567ffffffffffffffff80821115612ab457600080fd5b818501915085601f830112612ac857600080fd5b81356020612ad861297583612930565b82815260059290921b84018101918181019089841115612af757600080fd5b948201945b83861015612b1c57612b0d86612691565b82529482019490820190612afc565b96505086013592505080821115612b3257600080fd5b50612b3f85828601612954565b9150509250929050565b600081518084526020808501945080840160005b83811015612b7957815187529582019590820190600101612b5d565b509495945050505050565b6020815260006127236020830184612b49565b600060208284031215612ba957600080fd5b813562ffffff8116811461272357600080fd5b600060208284031215612bce57600080fd5b61272382612691565b600080600060608486031215612bec57600080fd5b612bf584612691565b9250602084013567ffffffffffffffff80821115612c1257600080fd5b612c1e87838801612954565b93506040860135915080821115612c3457600080fd5b50612c4186828701612954565b9150509250925092565b60008060408385031215612c5e57600080fd5b612c6783612691565b915060208301358015158114612c7c57600080fd5b809150509250929050565b878152866020820152856040820152841515606082015283151560808201528260a082015260e060c08201526000612cc260e083018461286a565b9998505050505050505050565b60008060408385031215612ce257600080fd5b612ceb83612691565b915061283d60208401612691565b600080600080600060a08688031215612d1157600080fd5b612d1a86612691565b9450612d2860208701612691565b93506040860135925060608601359150608086013567ffffffffffffffff811115612d5257600080fd5b612a7c888289016129bf565b600181811c90821680612d7257607f821691505b602082108103612d9257634e487b7160e01b600052602260045260246000fd5b50919050565b601f821115611d1357600081815260208120601f850160051c81016020861015612dbf5750805b601f850160051c820191505b81811015611e8557828155600101612dcb565b815167ffffffffffffffff811115612df857612df861272a565b612e0c81612e068454612d5e565b84612d98565b602080601f831160018114612e415760008415612e295750858301515b600019600386901b1c1916600185901b178555611e85565b600085815260208120601f198616915b82811015612e7057888601518255948401946001909101908401612e51565b5085821015612e8e5787850151600019600388901b60f8161c191681555b5050505050600190811b01905550565b6000808454612eac81612d5e565b60018281168015612ec45760018114612ed957612f08565b60ff1984168752821515830287019450612f08565b8860005260208060002060005b85811015612eff5781548a820152908401908201612ee6565b50505082870194505b505050508351612f1c818360208801612846565b64173539b7b760d91b9101908152600501949350505050565b634e487b7160e01b600052601160045260246000fd5b8082018082111561088d5761088d612f35565b600060208284031215612f7057600080fd5b5051919050565b60208082526023908201527f4e656564203130207377617073206f6e20444558206265666f7265206d696e74604082015262696e6760e81b606082015260800190565b808202811582820484141761088d5761088d612f35565b600082612fee57634e487b7160e01b600052601260045260246000fd5b500490565b634e487b7160e01b600052603260045260246000fd5b60006001820161301b5761301b612f35565b5060010190565b8181038181111561088d5761088d612f35565b6040815260006130486040830185612b49565b828103602084015261305a8185612b49565b95945050505050565b6001600160a01b03868116825285166020820152604081018490526060810183905260a06080820181905260009061309d9083018461286a565b979650505050505050565b6000602082840312156130ba57600080fd5b8151612723816126f0565b6001600160a01b0386811682528516602082015260a0604082018190526000906130f190830186612b49565b82810360608401526131038186612b49565b90508281036080840152613117818561286a565b9897505050505050505056fea2646970667358221220d42d8bb2498c7d9024d8196f96f6d007846570e9b3672cb9c9977fc0699f11fd64736f6c63430008140033",
  "linkReferences": {},
  "deployedLinkReferences": {}
}