{
  "_format": "hh-sol-artifact-1",
  "contractName": "tabiSwapChainRouter",
  "sourceName": "contracts/tabiSwapRouter.sol",
  "abi": [
    {
      "inputs": [
        {
          "internalType": "address",
          "name": "_factory",
          "type": "address"
        },
        {
          "internalType": "address",
          "name": "_WETH",
          "type": "address"
        }
      ],
      "stateMutability": "nonpayable",
      "type": "constructor"
    },
    {
      "anonymous": false,
      "inputs": [
        {
          "indexed": true,
          "internalType": "address",
          "name": "user",
          "type": "address"
        },
        {
          "indexed": false,
          "internalType": "uint256",
          "name": "swapCount",
          "type": "uint256"
        }
      ],
      "name": "SwapMilestone",
      "type": "event"
    },
    {
      "inputs": [],
      "name": "WETH",
      "outputs": [
        {
          "internalType": "address",
          "name": "",
          "type": "address"
        }
      ],
      "stateMutability": "view",
      "type": "function"
    },
    {
      "inputs": [
        {
          "internalType": "address",
          "name": "tokenA",
          "type": "address"
        },
        {
          "internalType": "address",
          "name": "tokenB",
          "type": "address"
        },
        {
          "internalType": "uint256",
          "name": "amountADesired",
          "type": "uint256"
        },
        {
          "internalType": "uint256",
          "name": "amountBDesired",
          "type": "uint256"
        },
        {
          "internalType": "uint256",
          "name": "amountAMin",
          "type": "uint256"
        },
        {
          "internalType": "uint256",
          "name": "amountBMin",
          "type": "uint256"
        },
        {
          "internalType": "address",
          "name": "to",
          "type": "address"
        },
        {
          "internalType": "uint256",
          "name": "deadline",
          "type": "uint256"
        }
      ],
      "name": "addLiquidity",
      "outputs": [
        {
          "internalType": "uint256",
          "name": "amountA",
          "type": "uint256"
        },
        {
          "internalType": "uint256",
          "name": "amountB",
          "type": "uint256"
        },
        {
          "internalType": "uint256",
          "name": "liquidity",
          "type": "uint256"
        }
      ],
      "stateMutability": "nonpayable",
      "type": "function"
    },
    {
      "inputs": [
        {
          "internalType": "address",
          "name": "token",
          "type": "address"
        },
        {
          "internalType": "uint256",
          "name": "amountTokenDesired",
          "type": "uint256"
        },
        {
          "internalType": "uint256",
          "name": "amountTokenMin",
          "type": "uint256"
        },
        {
          "internalType": "uint256",
          "name": "amountETHMin",
          "type": "uint256"
        },
        {
          "internalType": "address",
          "name": "to",
          "type": "address"
        },
        {
          "internalType": "uint256",
          "name": "deadline",
          "type": "uint256"
        }
      ],
      "name": "addLiquidityETH",
      "outputs": [
        {
          "internalType": "uint256",
          "name": "amountToken",
          "type": "uint256"
        },
        {
          "internalType": "uint256",
          "name": "amountETH",
          "type": "uint256"
        },
        {
          "internalType": "uint256",
          "name": "liquidity",
          "type": "uint256"
        }
      ],
      "stateMutability": "payable",
      "type": "function"
    },
    {
      "inputs": [],
      "name": "factory",
      "outputs": [
        {
          "internalType": "address",
          "name": "",
          "type": "address"
        }
      ],
      "stateMutability": "view",
      "type": "function"
    },
    {
      "inputs": [
        {
          "internalType": "uint256",
          "name": "amountOut",
          "type": "uint256"
        },
        {
          "internalType": "uint256",
          "name": "reserveIn",
          "type": "uint256"
        },
        {
          "internalType": "uint256",
          "name": "reserveOut",
          "type": "uint256"
        }
      ],
      "name": "getAmountIn",
      "outputs": [
        {
          "internalType": "uint256",
          "name": "amountIn",
          "type": "uint256"
        }
      ],
      "stateMutability": "pure",
      "type": "function"
    },
    {
      "inputs": [
        {
          "internalType": "uint256",
          "name": "amountIn",
          "type": "uint256"
        },
        {
          "internalType": "uint256",
          "name": "reserveIn",
          "type": "uint256"
        },
        {
          "internalType": "uint256",
          "name": "reserveOut",
          "type": "uint256"
        }
      ],
      "name": "getAmountOut",
      "outputs": [
        {
          "internalType": "uint256",
          "name": "amountOut",
          "type": "uint256"
        }
      ],
      "stateMutability": "pure",
      "type": "function"
    },
    {
      "inputs": [
        {
          "internalType": "uint256",
          "name": "amountOut",
          "type": "uint256"
        },
        {
          "internalType": "address[]",
          "name": "path",
          "type": "address[]"
        }
      ],
      "name": "getAmountsIn",
      "outputs": [
        {
          "internalType": "uint256[]",
          "name": "amounts",
          "type": "uint256[]"
        }
      ],
      "stateMutability": "view",
      "type": "function"
    },
    {
      "inputs": [
        {
          "internalType": "uint256",
          "name": "amountIn",
          "type": "uint256"
        },
        {
          "internalType": "address[]",
          "name": "path",
          "type": "address[]"
        }
      ],
      "name": "getAmountsOut",
      "outputs": [
        {
          "internalType": "uint256[]",
          "name": "amounts",
          "type": "uint256[]"
        }
      ],
      "stateMutability": "view",
      "type": "function"
    },
    {
      "inputs": [
        {
          "internalType": "address",
          "name": "user",
          "type": "address"
        }
      ],
      "name": "getUserSwapCount",
      "outputs": [
        {
          "internalType": "uint256",
          "name": "",
          "type": "uint256"
        }
      ],
      "stateMutability": "view",
      "type": "function"
    },
    {
      "inputs": [
        {
          "internalType": "uint256",
          "name": "amountA",
          "type": "uint256"
        },
        {
          "internalType": "uint256",
          "name": "reserveA",
          "type": "uint256"
        },
        {
          "internalType": "uint256",
          "name": "reserveB",
          "type": "uint256"
        }
      ],
      "name": "quote",
      "outputs": [
        {
          "internalType": "uint256",
          "name": "amountB",
          "type": "uint256"
        }
      ],
      "stateMutability": "pure",
      "type": "function"
    },
    {
      "inputs": [
        {
          "internalType": "address",
          "name": "tokenA",
          "type": "address"
        },
        {
          "internalType": "address",
          "name": "tokenB",
          "type": "address"
        },
        {
          "internalType": "uint256",
          "name": "liquidity",
          "type": "uint256"
        },
        {
          "internalType": "uint256",
          "name": "amountAMin",
          "type": "uint256"
        },
        {
          "internalType": "uint256",
          "name": "amountBMin",
          "type": "uint256"
        },
        {
          "internalType": "address",
          "name": "to",
          "type": "address"
        },
        {
          "internalType": "uint256",
          "name": "deadline",
          "type": "uint256"
        }
      ],
      "name": "removeLiquidity",
      "outputs": [
        {
          "internalType": "uint256",
          "name": "amountA",
          "type": "uint256"
        },
        {
          "internalType": "uint256",
          "name": "amountB",
          "type": "uint256"
        }
      ],
      "stateMutability": "nonpayable",
      "type": "function"
    },
    {
      "inputs": [
        {
          "internalType": "address",
          "name": "token",
          "type": "address"
        },
        {
          "internalType": "uint256",
          "name": "liquidity",
          "type": "uint256"
        },
        {
          "internalType": "uint256",
          "name": "amountTokenMin",
          "type": "uint256"
        },
        {
          "internalType": "uint256",
          "name": "amountETHMin",
          "type": "uint256"
        },
        {
          "internalType": "address",
          "name": "to",
          "type": "address"
        },
        {
          "internalType": "uint256",
          "name": "deadline",
          "type": "uint256"
        }
      ],
      "name": "removeLiquidityETH",
      "outputs": [
        {
          "internalType": "uint256",
          "name": "amountToken",
          "type": "uint256"
        },
        {
          "internalType": "uint256",
          "name": "amountETH",
          "type": "uint256"
        }
      ],
      "stateMutability": "nonpayable",
      "type": "function"
    },
    {
      "inputs": [
        {
          "internalType": "address",
          "name": "token",
          "type": "address"
        },
        {
          "internalType": "uint256",
          "name": "liquidity",
          "type": "uint256"
        },
        {
          "internalType": "uint256",
          "name": "amountTokenMin",
          "type": "uint256"
        },
        {
          "internalType": "uint256",
          "name": "amountETHMin",
          "type": "uint256"
        },
        {
          "internalType": "address",
          "name": "to",
          "type": "address"
        },
        {
          "internalType": "uint256",
          "name": "deadline",
          "type": "uint256"
        }
      ],
      "name": "removeLiquidityETHSupportingFeeOnTransferTokens",
      "outputs": [
        {
          "internalType": "uint256",
          "name": "amountETH",
          "type": "uint256"
        }
      ],
      "stateMutability": "nonpayable",
      "type": "function"
    },
    {
      "inputs": [
        {
          "internalType": "address",
          "name": "token",
          "type": "address"
        },
        {
          "internalType": "uint256",
          "name": "liquidity",
          "type": "uint256"
        },
        {
          "internalType": "uint256",
          "name": "amountTokenMin",
          "type": "uint256"
        },
        {
          "internalType": "uint256",
          "name": "amountETHMin",
          "type": "uint256"
        },
        {
          "internalType": "address",
          "name": "to",
          "type": "address"
        },
        {
          "internalType": "uint256",
          "name": "deadline",
          "type": "uint256"
        },
        {
          "internalType": "bool",
          "name": "approveMax",
          "type": "bool"
        },
        {
          "internalType": "uint8",
          "name": "v",
          "type": "uint8"
        },
        {
          "internalType": "bytes32",
          "name": "r",
          "type": "bytes32"
        },
        {
          "internalType": "bytes32",
          "name": "s",
          "type": "bytes32"
        }
      ],
      "name": "removeLiquidityETHWithPermit",
      "outputs": [
        {
          "internalType": "uint256",
          "name": "amountToken",
          "type": "uint256"
        },
        {
          "internalType": "uint256",
          "name": "amountETH",
          "type": "uint256"
        }
      ],
      "stateMutability": "nonpayable",
      "type": "function"
    },
    {
      "inputs": [
        {
          "internalType": "address",
          "name": "token",
          "type": "address"
        },
        {
          "internalType": "uint256",
          "name": "liquidity",
          "type": "uint256"
        },
        {
          "internalType": "uint256",
          "name": "amountTokenMin",
          "type": "uint256"
        },
        {
          "internalType": "uint256",
          "name": "amountETHMin",
          "type": "uint256"
        },
        {
          "internalType": "address",
          "name": "to",
          "type": "address"
        },
        {
          "internalType": "uint256",
          "name": "deadline",
          "type": "uint256"
        },
        {
          "internalType": "bool",
          "name": "approveMax",
          "type": "bool"
        },
        {
          "internalType": "uint8",
          "name": "v",
          "type": "uint8"
        },
        {
          "internalType": "bytes32",
          "name": "r",
          "type": "bytes32"
        },
        {
          "internalType": "bytes32",
          "name": "s",
          "type": "bytes32"
        }
      ],
      "name": "removeLiquidityETHWithPermitSupportingFeeOnTransferTokens",
      "outputs": [
        {
          "internalType": "uint256",
          "name": "amountETH",
          "type": "uint256"
        }
      ],
      "stateMutability": "nonpayable",
      "type": "function"
    },
    {
      "inputs": [
        {
          "internalType": "address",
          "name": "tokenA",
          "type": "address"
        },
        {
          "internalType": "address",
          "name": "tokenB",
          "type": "address"
        },
        {
          "internalType": "uint256",
          "name": "liquidity",
          "type": "uint256"
        },
        {
          "internalType": "uint256",
          "name": "amountAMin",
          "type": "uint256"
        },
        {
          "internalType": "uint256",
          "name": "amountBMin",
          "type": "uint256"
        },
        {
          "internalType": "address",
          "name": "to",
          "type": "address"
        },
        {
          "internalType": "uint256",
          "name": "deadline",
          "type": "uint256"
        },
        {
          "internalType": "bool",
          "name": "approveMax",
          "type": "bool"
        },
        {
          "internalType": "uint8",
          "name": "v",
          "type": "uint8"
        },
        {
          "internalType": "bytes32",
          "name": "r",
          "type": "bytes32"
        },
        {
          "internalType": "bytes32",
          "name": "s",
          "type": "bytes32"
        }
      ],
      "name": "removeLiquidityWithPermit",
      "outputs": [
        {
          "internalType": "uint256",
          "name": "amountA",
          "type": "uint256"
        },
        {
          "internalType": "uint256",
          "name": "amountB",
          "type": "uint256"
        }
      ],
      "stateMutability": "nonpayable",
      "type": "function"
    },
    {
      "inputs": [
        {
          "internalType": "uint256",
          "name": "amountOut",
          "type": "uint256"
        },
        {
          "internalType": "address[]",
          "name": "path",
          "type": "address[]"
        },
        {
          "internalType": "address",
          "name": "to",
          "type": "address"
        },
        {
          "internalType": "uint256",
          "name": "deadline",
          "type": "uint256"
        }
      ],
      "name": "swapETHForExactTokens",
      "outputs": [
        {
          "internalType": "uint256[]",
          "name": "amounts",
          "type": "uint256[]"
        }
      ],
      "stateMutability": "payable",
      "type": "function"
    },
    {
      "inputs": [
        {
          "internalType": "uint256",
          "name": "amountOutMin",
          "type": "uint256"
        },
        {
          "internalType": "address[]",
          "name": "path",
          "type": "address[]"
        },
        {
          "internalType": "address",
          "name": "to",
          "type": "address"
        },
        {
          "internalType": "uint256",
          "name": "deadline",
          "type": "uint256"
        }
      ],
      "name": "swapExactETHForTokens",
      "outputs": [
        {
          "internalType": "uint256[]",
          "name": "amounts",
          "type": "uint256[]"
        }
      ],
      "stateMutability": "payable",
      "type": "function"
    },
    {
      "inputs": [
        {
          "internalType": "uint256",
          "name": "amountOutMin",
          "type": "uint256"
        },
        {
          "internalType": "address[]",
          "name": "path",
          "type": "address[]"
        },
        {
          "internalType": "address",
          "name": "to",
          "type": "address"
        },
        {
          "internalType": "uint256",
          "name": "deadline",
          "type": "uint256"
        }
      ],
      "name": "swapExactETHForTokensSupportingFeeOnTransferTokens",
      "outputs": [],
      "stateMutability": "payable",
      "type": "function"
    },
    {
      "inputs": [
        {
          "internalType": "uint256",
          "name": "amountIn",
          "type": "uint256"
        },
        {
          "internalType": "uint256",
          "name": "amountOutMin",
          "type": "uint256"
        },
        {
          "internalType": "address[]",
          "name": "path",
          "type": "address[]"
        },
        {
          "internalType": "address",
          "name": "to",
          "type": "address"
        },
        {
          "internalType": "uint256",
          "name": "deadline",
          "type": "uint256"
        }
      ],
      "name": "swapExactTokensForETH",
      "outputs": [
        {
          "internalType": "uint256[]",
          "name": "amounts",
          "type": "uint256[]"
        }
      ],
      "stateMutability": "nonpayable",
      "type": "function"
    },
    {
      "inputs": [
        {
          "internalType": "uint256",
          "name": "amountIn",
          "type": "uint256"
        },
        {
          "internalType": "uint256",
          "name": "amountOutMin",
          "type": "uint256"
        },
        {
          "internalType": "address[]",
          "name": "path",
          "type": "address[]"
        },
        {
          "internalType": "address",
          "name": "to",
          "type": "address"
        },
        {
          "internalType": "uint256",
          "name": "deadline",
          "type": "uint256"
        }
      ],
      "name": "swapExactTokensForETHSupportingFeeOnTransferTokens",
      "outputs": [],
      "stateMutability": "nonpayable",
      "type": "function"
    },
    {
      "inputs": [
        {
          "internalType": "uint256",
          "name": "amountIn",
          "type": "uint256"
        },
        {
          "internalType": "uint256",
          "name": "amountOutMin",
          "type": "uint256"
        },
        {
          "internalType": "address[]",
          "name": "path",
          "type": "address[]"
        },
        {
          "internalType": "address",
          "name": "to",
          "type": "address"
        },
        {
          "internalType": "uint256",
          "name": "deadline",
          "type": "uint256"
        }
      ],
      "name": "swapExactTokensForTokens",
      "outputs": [
        {
          "internalType": "uint256[]",
          "name": "amounts",
          "type": "uint256[]"
        }
      ],
      "stateMutability": "nonpayable",
      "type": "function"
    },
    {
      "inputs": [
        {
          "internalType": "uint256",
          "name": "amountIn",
          "type": "uint256"
        },
        {
          "internalType": "uint256",
          "name": "amountOutMin",
          "type": "uint256"
        },
        {
          "internalType": "address[]",
          "name": "path",
          "type": "address[]"
        },
        {
          "internalType": "address",
          "name": "to",
          "type": "address"
        },
        {
          "internalType": "uint256",
          "name": "deadline",
          "type": "uint256"
        }
      ],
      "name": "swapExactTokensForTokensSupportingFeeOnTransferTokens",
      "outputs": [],
      "stateMutability": "nonpayable",
      "type": "function"
    },
    {
      "inputs": [
        {
          "internalType": "uint256",
          "name": "amountOut",
          "type": "uint256"
        },
        {
          "internalType": "uint256",
          "name": "amountInMax",
          "type": "uint256"
        },
        {
          "internalType": "address[]",
          "name": "path",
          "type": "address[]"
        },
        {
          "internalType": "address",
          "name": "to",
          "type": "address"
        },
        {
          "internalType": "uint256",
          "name": "deadline",
          "type": "uint256"
        }
      ],
      "name": "swapTokensForExactETH",
      "outputs": [
        {
          "internalType": "uint256[]",
          "name": "amounts",
          "type": "uint256[]"
        }
      ],
      "stateMutability": "nonpayable",
      "type": "function"
    },
    {
      "inputs": [
        {
          "internalType": "uint256",
          "name": "amountOut",
          "type": "uint256"
        },
        {
          "internalType": "uint256",
          "name": "amountInMax",
          "type": "uint256"
        },
        {
          "internalType": "address[]",
          "name": "path",
          "type": "address[]"
        },
        {
          "internalType": "address",
          "name": "to",
          "type": "address"
        },
        {
          "internalType": "uint256",
          "name": "deadline",
          "type": "uint256"
        }
      ],
      "name": "swapTokensForExactTokens",
      "outputs": [
        {
          "internalType": "uint256[]",
          "name": "amounts",
          "type": "uint256[]"
        }
      ],
      "stateMutability": "nonpayable",
      "type": "function"
    },
    {
      "inputs": [
        {
          "internalType": "address",
          "name": "",
          "type": "address"
        }
      ],
      "name": "userSwapCount",
      "outputs": [
        {
          "internalType": "uint256",
          "name": "",
          "type": "uint256"
        }
      ],
      "stateMutability": "view",
      "type": "function"
    },
    {
      "stateMutability": "payable",
      "type": "receive"
    }
  ],
  "bytecode": "0x60c060405234801561001057600080fd5b50604051620048a5380380620048a58339818101604052604081101561003557600080fd5b5080516020909101516001600160601b0319606092831b8116608052911b1660a05260805160601c60a05160601c61472062000185600039806101955280610d805280610dbb5280610eb252806110d0528061146352806115db52806119c65280611ac05280611b765280611c445280611d8a5280611e12528061206052806120db528061218a528061225652806122eb528061235f528061285d5280612ad05280612b265280612b5a5280612bce5280612d6e5280612eb15280612f39525080610f405280611017528061119f52806111d8528061131352806114f152806115b952806117295280611cd75280611e445280611fb0528061239152806125ea52806127e2528061280b528061283b52806129a85280612b045280612e015280612f6b52806137f8528061383b5280613b875280613d0652806141625280614210528061429052506147206000f3fe6080604052600436106101855760003560e01c806385f8c259116100d1578063baa2abde1161008a578063ded9382a11610064578063ded9382a14610b76578063e8e3370014610be9578063f305d71914610c69578063fb3bdb4114610caf576101be565b8063baa2abde14610a4f578063c45a015514610aac578063d06ca61f14610ac1576101be565b806385f8c259146108455780638803dbee1461087b578063ad5c464814610911578063ad615dec14610942578063af2979eb14610978578063b6f9de95146109cb576101be565b80634a25d94a1161013e5780635c11d795116101185780635c11d79514610662578063715e86b5146106f8578063791ac9471461072b5780637ff36ab5146107c1576101be565b80634a25d94a14610526578063543aa9fe146105bc5780635b0d5984146105ef576101be565b806302751cec146101c3578063054d50d41461022f57806318cbafe5146102775780631f00ca741461035d5780632195995c1461041257806338ed173914610490576101be565b366101be57336001600160a01b037f000000000000000000000000000000000000000000000000000000000000000016146101bc57fe5b005b600080fd5b3480156101cf57600080fd5b50610216600480360360c08110156101e657600080fd5b506001600160a01b0381358116916020810135916040820135916060810135916080820135169060a00135610d33565b6040805192835260208301919091528051918290030190f35b34801561023b57600080fd5b506102656004803603606081101561025257600080fd5b5080359060208101359060400135610e4d565b60408051918252519081900360200190f35b34801561028357600080fd5b5061030d600480360360a081101561029a57600080fd5b813591602081013591810190606081016040820135600160201b8111156102c057600080fd5b8201836020820111156102d257600080fd5b803590602001918460208302840111600160201b831117156102f357600080fd5b91935091506001600160a01b038135169060200135610e62565b60408051602080825283518183015283519192839290830191858101910280838360005b83811015610349578181015183820152602001610331565b505050509050019250505060405180910390f35b34801561036957600080fd5b5061030d6004803603604081101561038057600080fd5b81359190810190604081016020820135600160201b8111156103a157600080fd5b8201836020820111156103b357600080fd5b803590602001918460208302840111600160201b831117156103d457600080fd5b919080806020026020016040519081016040528093929190818152602001838360200280828437600092019190915250929550611198945050505050565b34801561041e57600080fd5b50610216600480360361016081101561043657600080fd5b506001600160a01b038135811691602081013582169160408201359160608101359160808201359160a08101359091169060c08101359060e081013515159060ff61010082013516906101208101359061014001356111ce565b34801561049c57600080fd5b5061030d600480360360a08110156104b357600080fd5b813591602081013591810190606081016040820135600160201b8111156104d957600080fd5b8201836020820111156104eb57600080fd5b803590602001918460208302840111600160201b8311171561050c57600080fd5b91935091506001600160a01b0381351690602001356112c8565b34801561053257600080fd5b5061030d600480360360a081101561054957600080fd5b813591602081013591810190606081016040820135600160201b81111561056f57600080fd5b82018360208201111561058157600080fd5b803590602001918460208302840111600160201b831117156105a257600080fd5b91935091506001600160a01b038135169060200135611413565b3480156105c857600080fd5b50610265600480360360208110156105df57600080fd5b50356001600160a01b031661159f565b3480156105fb57600080fd5b50610265600480360361014081101561061357600080fd5b506001600160a01b0381358116916020810135916040820135916060810135916080820135169060a08101359060c081013515159060ff60e082013516906101008101359061012001356115b1565b34801561066e57600080fd5b506101bc600480360360a081101561068557600080fd5b813591602081013591810190606081016040820135600160201b8111156106ab57600080fd5b8201836020820111156106bd57600080fd5b803590602001918460208302840111600160201b831117156106de57600080fd5b91935091506001600160a01b0381351690602001356116bf565b34801561070457600080fd5b506102656004803603602081101561071b57600080fd5b50356001600160a01b031661195d565b34801561073757600080fd5b506101bc600480360360a081101561074e57600080fd5b813591602081013591810190606081016040820135600160201b81111561077457600080fd5b82018360208201111561078657600080fd5b803590602001918460208302840111600160201b831117156107a757600080fd5b91935091506001600160a01b038135169060200135611978565b61030d600480360360808110156107d757600080fd5b81359190810190604081016020820135600160201b8111156107f857600080fd5b82018360208201111561080a57600080fd5b803590602001918460208302840111600160201b8311171561082b57600080fd5b91935091506001600160a01b038135169060200135611bfc565b34801561085157600080fd5b506102656004803603606081101561086857600080fd5b5080359060208101359060400135611f58565b34801561088757600080fd5b5061030d600480360360a081101561089e57600080fd5b813591602081013591810190606081016040820135600160201b8111156108c457600080fd5b8201836020820111156108d657600080fd5b803590602001918460208302840111600160201b831117156108f757600080fd5b91935091506001600160a01b038135169060200135611f65565b34801561091d57600080fd5b5061092661205e565b604080516001600160a01b039092168252519081900360200190f35b34801561094e57600080fd5b506102656004803603606081101561096557600080fd5b5080359060208101359060400135612082565b34801561098457600080fd5b50610265600480360360c081101561099b57600080fd5b506001600160a01b0381358116916020810135916040820135916060810135916080820135169060a0013561208f565b6101bc600480360360808110156109e157600080fd5b81359190810190604081016020820135600160201b811115610a0257600080fd5b820183602082011115610a1457600080fd5b803590602001918460208302840111600160201b83111715610a3557600080fd5b91935091506001600160a01b038135169060200135612210565b348015610a5b57600080fd5b50610216600480360360e0811015610a7257600080fd5b506001600160a01b038135811691602081013582169160408201359160608101359160808201359160a08101359091169060c0013561259c565b348015610ab857600080fd5b506109266127e0565b348015610acd57600080fd5b5061030d60048036036040811015610ae457600080fd5b81359190810190604081016020820135600160201b811115610b0557600080fd5b820183602082011115610b1757600080fd5b803590602001918460208302840111600160201b83111715610b3857600080fd5b919080806020026020016040519081016040528093929190818152602001838360200280828437600092019190915250929550612804945050505050565b348015610b8257600080fd5b506102166004803603610140811015610b9a57600080fd5b506001600160a01b0381358116916020810135916040820135916060810135916080820135169060a08101359060c081013515159060ff60e08201351690610100810135906101200135612831565b348015610bf557600080fd5b50610c4b6004803603610100811015610c0d57600080fd5b506001600160a01b038135811691602081013582169160408201359160608101359160808201359160a08101359160c0820135169060e00135612945565b60408051938452602084019290925282820152519081900360600190f35b610c4b600480360360c0811015610c7f57600080fd5b506001600160a01b0381358116916020810135916040820135916060810135916080820135169060a00135612a81565b61030d60048036036080811015610cc557600080fd5b81359190810190604081016020820135600160201b811115610ce657600080fd5b820183602082011115610cf857600080fd5b803590602001918460208302840111600160201b83111715610d1957600080fd5b91935091506001600160a01b038135169060200135612d26565b6000808242811015610d7a576040805162461bcd60e51b8152602060048201526013602482015260008051602061465b833981519152604482015290519081900360640190fd5b610da9897f00000000000000000000000000000000000000000000000000000000000000008a8a8a308a61259c565b9093509150610db98986856130a8565b7f00000000000000000000000000000000000000000000000000000000000000006001600160a01b0316632e1a7d4d836040518263ffffffff1660e01b815260040180828152602001915050600060405180830381600087803b158015610e1f57600080fd5b505af1158015610e33573d6000803e3d6000fd5b50505050610e4185836131fc565b50965096945050505050565b6000610e5a8484846132f4565b949350505050565b60608142811015610ea8576040805162461bcd60e51b8152602060048201526013602482015260008051602061465b833981519152604482015290519081900360640190fd5b6001600160a01b037f00000000000000000000000000000000000000000000000000000000000000001686866000198101818110610ee257fe5b905060200201356001600160a01b03166001600160a01b031614610f3b576040805162461bcd60e51b8152602060048201526018602482015260008051602061451f833981519152604482015290519081900360640190fd5b610f997f0000000000000000000000000000000000000000000000000000000000000000898888808060200260200160405190810160405280939291908181526020018383602002808284376000920191909152506133e492505050565b91508682600184510381518110610fac57fe5b60200260200101511015610ff15760405162461bcd60e51b815260040180806020018281038252602681526020018061460e6026913960400191505060405180910390fd5b61108f8686600081811061100157fe5b905060200201356001600160a01b0316336110757f00000000000000000000000000000000000000000000000000000000000000008a8a600081811061104357fe5b905060200201356001600160a01b03168b8b600181811061106057fe5b905060200201356001600160a01b031661352c565b8560008151811061108257fe5b60200260200101516135ec565b6110ce82878780806020026020016040519081016040528093929190818152602001838360200280828437600092019190915250309250613749915050565b7f00000000000000000000000000000000000000000000000000000000000000006001600160a01b0316632e1a7d4d8360018551038151811061110d57fe5b60200260200101516040518263ffffffff1660e01b815260040180828152602001915050600060405180830381600087803b15801561114b57600080fd5b505af115801561115f573d6000803e3d6000fd5b50505050611184848360018551038151811061117757fe5b60200260200101516131fc565b61118d3361398f565b509695505050505050565b60606111c57f000000000000000000000000000000000000000000000000000000000000000084846139fc565b90505b92915050565b60008060006111fe7f00000000000000000000000000000000000000000000000000000000000000008f8f61352c565b905060008761120d578c611211565b6000195b6040805163d505accf60e01b815233600482015230602482015260448101839052606481018c905260ff8a16608482015260a4810189905260c4810188905290519192506001600160a01b0384169163d505accf9160e48082019260009290919082900301818387803b15801561128757600080fd5b505af115801561129b573d6000803e3d6000fd5b505050506112ae8f8f8f8f8f8f8f61259c565b809450819550505050509b509b9950505050505050505050565b6060814281101561130e576040805162461bcd60e51b8152602060048201526013602482015260008051602061465b833981519152604482015290519081900360640190fd5b61136c7f0000000000000000000000000000000000000000000000000000000000000000898888808060200260200160405190810160405280939291908181526020018383602002808284376000920191909152506133e492505050565b9150868260018451038151811061137f57fe5b602002602001015110156113c45760405162461bcd60e51b815260040180806020018281038252602681526020018061460e6026913960400191505060405180910390fd5b6113d48686600081811061100157fe5b61118482878780806020026020016040519081016040528093929190818152602001838360200280828437600092019190915250899250613749915050565b60608142811015611459576040805162461bcd60e51b8152602060048201526013602482015260008051602061465b833981519152604482015290519081900360640190fd5b6001600160a01b037f0000000000000000000000000000000000000000000000000000000000000000168686600019810181811061149357fe5b905060200201356001600160a01b03166001600160a01b0316146114ec576040805162461bcd60e51b8152602060048201526018602482015260008051602061451f833981519152604482015290519081900360640190fd5b61154a7f0000000000000000000000000000000000000000000000000000000000000000898888808060200260200160405190810160405280939291908181526020018383602002808284376000920191909152506139fc92505050565b9150868260008151811061155a57fe5b60200260200101511115610ff15760405162461bcd60e51b81526004018080602001828103825260228152602001806146a86022913960400191505060405180910390fd5b60006020819052908152604090205481565b6000806115ff7f00000000000000000000000000000000000000000000000000000000000000008d7f000000000000000000000000000000000000000000000000000000000000000061352c565b905060008661160e578b611612565b6000195b6040805163d505accf60e01b815233600482015230602482015260448101839052606481018b905260ff8916608482015260a4810188905260c4810187905290519192506001600160a01b0384169163d505accf9160e48082019260009290919082900301818387803b15801561168857600080fd5b505af115801561169c573d6000803e3d6000fd5b505050506116ae8d8d8d8d8d8d61208f565b9d9c50505050505050505050505050565b8042811015611703576040805162461bcd60e51b8152602060048201526013602482015260008051602061465b833981519152604482015290519081900360640190fd5b6117788585600081811061171357fe5b905060200201356001600160a01b0316336117727f00000000000000000000000000000000000000000000000000000000000000008989600081811061175557fe5b905060200201356001600160a01b03168a8a600181811061106057fe5b8a6135ec565b60008585600019810181811061178a57fe5b905060200201356001600160a01b03166001600160a01b03166370a08231856040518263ffffffff1660e01b815260040180826001600160a01b03166001600160a01b0316815260200191505060206040518083038186803b1580156117ef57600080fd5b505afa158015611803573d6000803e3d6000fd5b505050506040513d602081101561181957600080fd5b5051604080516020888102828101820190935288825292935061185b929091899189918291850190849080828437600092019190915250889250613b30915050565b8661190d828888600019810181811061187057fe5b905060200201356001600160a01b03166001600160a01b03166370a08231886040518263ffffffff1660e01b815260040180826001600160a01b03166001600160a01b0316815260200191505060206040518083038186803b1580156118d557600080fd5b505afa1580156118e9573d6000803e3d6000fd5b505050506040513d60208110156118ff57600080fd5b50519063ffffffff613e3b16565b101561194a5760405162461bcd60e51b815260040180806020018281038252602681526020018061460e6026913960400191505060405180910390fd5b6119533361398f565b5050505050505050565b6001600160a01b031660009081526020819052604090205490565b80428110156119bc576040805162461bcd60e51b8152602060048201526013602482015260008051602061465b833981519152604482015290519081900360640190fd5b6001600160a01b037f000000000000000000000000000000000000000000000000000000000000000016858560001981018181106119f657fe5b905060200201356001600160a01b03166001600160a01b031614611a4f576040805162461bcd60e51b8152602060048201526018602482015260008051602061451f833981519152604482015290519081900360640190fd5b611a5f8585600081811061171357fe5b611a9d858580806020026020016040519081016040528093929190818152602001838360200280828437600092019190915250309250613b30915050565b604080516370a0823160e01b815230600482015290516000916001600160a01b037f000000000000000000000000000000000000000000000000000000000000000016916370a0823191602480820192602092909190829003018186803b158015611b0757600080fd5b505afa158015611b1b573d6000803e3d6000fd5b505050506040513d6020811015611b3157600080fd5b5051905086811015611b745760405162461bcd60e51b815260040180806020018281038252602681526020018061460e6026913960400191505060405180910390fd5b7f00000000000000000000000000000000000000000000000000000000000000006001600160a01b0316632e1a7d4d826040518263ffffffff1660e01b815260040180828152602001915050600060405180830381600087803b158015611bda57600080fd5b505af1158015611bee573d6000803e3d6000fd5b5050505061194a84826131fc565b60608142811015611c42576040805162461bcd60e51b8152602060048201526013602482015260008051602061465b833981519152604482015290519081900360640190fd5b7f00000000000000000000000000000000000000000000000000000000000000006001600160a01b031686866000818110611c7957fe5b905060200201356001600160a01b03166001600160a01b031614611cd2576040805162461bcd60e51b8152602060048201526018602482015260008051602061451f833981519152604482015290519081900360640190fd5b611d307f0000000000000000000000000000000000000000000000000000000000000000348888808060200260200160405190810160405280939291908181526020018383602002808284376000920191909152506133e492505050565b91508682600184510381518110611d4357fe5b60200260200101511015611d885760405162461bcd60e51b815260040180806020018281038252602681526020018061460e6026913960400191505060405180910390fd5b7f00000000000000000000000000000000000000000000000000000000000000006001600160a01b031663d0e30db083600081518110611dc457fe5b60200260200101516040518263ffffffff1660e01b81526004016000604051808303818588803b158015611df757600080fd5b505af1158015611e0b573d6000803e3d6000fd5b50505050507f00000000000000000000000000000000000000000000000000000000000000006001600160a01b031663a9059cbb611e707f00000000000000000000000000000000000000000000000000000000000000008989600081811061175557fe5b84600081518110611e7d57fe5b60200260200101516040518363ffffffff1660e01b815260040180836001600160a01b03166001600160a01b0316815260200182815260200192505050602060405180830381600087803b158015611ed457600080fd5b505af1158015611ee8573d6000803e3d6000fd5b505050506040513d6020811015611efe57600080fd5b5051611f0657fe5b611f4582878780806020026020016040519081016040528093929190818152602001838360200280828437600092019190915250899250613749915050565b611f4e3361398f565b5095945050505050565b6000610e5a848484613e8b565b60608142811015611fab576040805162461bcd60e51b8152602060048201526013602482015260008051602061465b833981519152604482015290519081900360640190fd5b6120097f0000000000000000000000000000000000000000000000000000000000000000898888808060200260200160405190810160405280939291908181526020018383602002808284376000920191909152506139fc92505050565b9150868260008151811061201957fe5b602002602001015111156113c45760405162461bcd60e51b81526004018080602001828103825260228152602001806146a86022913960400191505060405180910390fd5b7f000000000000000000000000000000000000000000000000000000000000000081565b6000610e5a848484613f7b565b600081428110156120d5576040805162461bcd60e51b8152602060048201526013602482015260008051602061465b833981519152604482015290519081900360640190fd5b612104887f0000000000000000000000000000000000000000000000000000000000000000898989308961259c565b604080516370a0823160e01b8152306004820152905191945061218892508a9187916001600160a01b038416916370a0823191602480820192602092909190829003018186803b15801561215757600080fd5b505afa15801561216b573d6000803e3d6000fd5b505050506040513d602081101561218157600080fd5b50516130a8565b7f00000000000000000000000000000000000000000000000000000000000000006001600160a01b0316632e1a7d4d836040518263ffffffff1660e01b815260040180828152602001915050600060405180830381600087803b1580156121ee57600080fd5b505af1158015612202573d6000803e3d6000fd5b5050505061118d84836131fc565b8042811015612254576040805162461bcd60e51b8152602060048201526013602482015260008051602061465b833981519152604482015290519081900360640190fd5b7f00000000000000000000000000000000000000000000000000000000000000006001600160a01b03168585600081811061228b57fe5b905060200201356001600160a01b03166001600160a01b0316146122e4576040805162461bcd60e51b8152602060048201526018602482015260008051602061451f833981519152604482015290519081900360640190fd5b60003490507f00000000000000000000000000000000000000000000000000000000000000006001600160a01b031663d0e30db0826040518263ffffffff1660e01b81526004016000604051808303818588803b15801561234457600080fd5b505af1158015612358573d6000803e3d6000fd5b50505050507f00000000000000000000000000000000000000000000000000000000000000006001600160a01b031663a9059cbb6123bd7f00000000000000000000000000000000000000000000000000000000000000008989600081811061175557fe5b836040518363ffffffff1660e01b815260040180836001600160a01b03166001600160a01b0316815260200182815260200192505050602060405180830381600087803b15801561240d57600080fd5b505af1158015612421573d6000803e3d6000fd5b505050506040513d602081101561243757600080fd5b505161243f57fe5b60008686600019810181811061245157fe5b905060200201356001600160a01b03166001600160a01b03166370a08231866040518263ffffffff1660e01b815260040180826001600160a01b03166001600160a01b0316815260200191505060206040518083038186803b1580156124b657600080fd5b505afa1580156124ca573d6000803e3d6000fd5b505050506040513d60208110156124e057600080fd5b505160408051602089810282810182019093528982529293506125229290918a918a918291850190849080828437600092019190915250899250613b30915050565b8761190d828989600019810181811061253757fe5b905060200201356001600160a01b03166001600160a01b03166370a08231896040518263ffffffff1660e01b815260040180826001600160a01b03166001600160a01b0316815260200191505060206040518083038186803b1580156118d557600080fd5b60008082428110156125e3576040805162461bcd60e51b8152602060048201526013602482015260008051602061465b833981519152604482015290519081900360640190fd5b60006126107f00000000000000000000000000000000000000000000000000000000000000008c8c61352c565b604080516323b872dd60e01b81523360048201526001600160a01b03831660248201819052604482018d9052915192935090916323b872dd916064808201926020929091908290030181600087803b15801561266b57600080fd5b505af115801561267f573d6000803e3d6000fd5b505050506040513d602081101561269557600080fd5b50506040805163226bf2d160e21b81526001600160a01b03888116600483015282516000938493928616926389afcb44926024808301939282900301818787803b1580156126e257600080fd5b505af11580156126f6573d6000803e3d6000fd5b505050506040513d604081101561270c57600080fd5b508051602090910151909250905060006127268e8e61403d565b509050806001600160a01b03168e6001600160a01b03161461274957818361274c565b82825b90975095508a8710156127905760405162461bcd60e51b81526004018080602001828103825260218152602001806146ca6021913960400191505060405180910390fd5b898610156127cf5760405162461bcd60e51b81526004018080602001828103825260218152602001806145ed6021913960400191505060405180910390fd5b505050505097509795505050505050565b7f000000000000000000000000000000000000000000000000000000000000000081565b60606111c57f000000000000000000000000000000000000000000000000000000000000000084846133e4565b60008060006128817f00000000000000000000000000000000000000000000000000000000000000008e7f000000000000000000000000000000000000000000000000000000000000000061352c565b9050600087612890578c612894565b6000195b6040805163d505accf60e01b815233600482015230602482015260448101839052606481018c905260ff8a16608482015260a4810189905260c4810188905290519192506001600160a01b0384169163d505accf9160e48082019260009290919082900301818387803b15801561290a57600080fd5b505af115801561291e573d6000803e3d6000fd5b505050506129308e8e8e8e8e8e610d33565b909f909e509c50505050505050505050505050565b6000806000834281101561298e576040805162461bcd60e51b8152602060048201526013602482015260008051602061465b833981519152604482015290519081900360640190fd5b61299c8c8c8c8c8c8c614131565b909450925060006129ce7f00000000000000000000000000000000000000000000000000000000000000008e8e61352c565b90506129dc8d3383886135ec565b6129e88c3383876135ec565b806001600160a01b0316636a627842886040518263ffffffff1660e01b815260040180826001600160a01b03166001600160a01b03168152602001915050602060405180830381600087803b158015612a4057600080fd5b505af1158015612a54573d6000803e3d6000fd5b505050506040513d6020811015612a6a57600080fd5b5051949d939c50939a509198505050505050505050565b60008060008342811015612aca576040805162461bcd60e51b8152602060048201526013602482015260008051602061465b833981519152604482015290519081900360640190fd5b612af88a7f00000000000000000000000000000000000000000000000000000000000000008b348c8c614131565b90945092506000612b4a7f00000000000000000000000000000000000000000000000000000000000000008c7f000000000000000000000000000000000000000000000000000000000000000061352c565b9050612b588b3383886135ec565b7f00000000000000000000000000000000000000000000000000000000000000006001600160a01b031663d0e30db0856040518263ffffffff1660e01b81526004016000604051808303818588803b158015612bb357600080fd5b505af1158015612bc7573d6000803e3d6000fd5b50505050507f00000000000000000000000000000000000000000000000000000000000000006001600160a01b031663a9059cbb82866040518363ffffffff1660e01b815260040180836001600160a01b03166001600160a01b0316815260200182815260200192505050602060405180830381600087803b158015612c4c57600080fd5b505af1158015612c60573d6000803e3d6000fd5b505050506040513d6020811015612c7657600080fd5b5051612c7e57fe5b806001600160a01b0316636a627842886040518263ffffffff1660e01b815260040180826001600160a01b03166001600160a01b03168152602001915050602060405180830381600087803b158015612cd657600080fd5b505af1158015612cea573d6000803e3d6000fd5b505050506040513d6020811015612d0057600080fd5b5051925034841015612d1857612d18338534036131fc565b505096509650969350505050565b60608142811015612d6c576040805162461bcd60e51b8152602060048201526013602482015260008051602061465b833981519152604482015290519081900360640190fd5b7f00000000000000000000000000000000000000000000000000000000000000006001600160a01b031686866000818110612da357fe5b905060200201356001600160a01b03166001600160a01b031614612dfc576040805162461bcd60e51b8152602060048201526018602482015260008051602061451f833981519152604482015290519081900360640190fd5b612e5a7f0000000000000000000000000000000000000000000000000000000000000000888888808060200260200160405190810160405280939291908181526020018383602002808284376000920191909152506139fc92505050565b91503482600081518110612e6a57fe5b60200260200101511115612eaf5760405162461bcd60e51b81526004018080602001828103825260228152602001806146a86022913960400191505060405180910390fd5b7f00000000000000000000000000000000000000000000000000000000000000006001600160a01b031663d0e30db083600081518110612eeb57fe5b60200260200101516040518263ffffffff1660e01b81526004016000604051808303818588803b158015612f1e57600080fd5b505af1158015612f32573d6000803e3d6000fd5b50505050507f00000000000000000000000000000000000000000000000000000000000000006001600160a01b031663a9059cbb612f977f00000000000000000000000000000000000000000000000000000000000000008989600081811061175557fe5b84600081518110612fa457fe5b60200260200101516040518363ffffffff1660e01b815260040180836001600160a01b03166001600160a01b0316815260200182815260200192505050602060405180830381600087803b158015612ffb57600080fd5b505af115801561300f573d6000803e3d6000fd5b505050506040513d602081101561302557600080fd5b505161302d57fe5b61306c82878780806020026020016040519081016040528093929190818152602001838360200280828437600092019190915250899250613749915050565b8160008151811061307957fe5b6020026020010151341115611f4557611f45338360008151811061309957fe5b602002602001015134036131fc565b604080516001600160a01b038481166024830152604480830185905283518084039091018152606490920183526020820180516001600160e01b031663a9059cbb60e01b178152925182516000946060949389169392918291908083835b602083106131255780518252601f199092019160209182019101613106565b6001836020036101000a0380198251168184511680821785525050505050509050019150506000604051808303816000865af19150503d8060008114613187576040519150601f19603f3d011682016040523d82523d6000602084013e61318c565b606091505b50915091508180156131ba5750805115806131ba57508080602001905160208110156131b757600080fd5b50515b6131f55760405162461bcd60e51b815260040180806020018281038252602d81526020018061467b602d913960400191505060405180910390fd5b5050505050565b604080516000808252602082019092526001600160a01b0384169083906040518082805190602001908083835b602083106132485780518252601f199092019160209182019101613229565b6001836020036101000a03801982511681845116808217855250505050505090500191505060006040518083038185875af1925050503d80600081146132aa576040519150601f19603f3d011682016040523d82523d6000602084013e6132af565b606091505b50509050806132ef5760405162461bcd60e51b81526004018080602001828103825260348152602001806145706034913960400191505060405180910390fd5b505050565b60008084116133345760405162461bcd60e51b81526004018080602001828103825260268152602001806145c76026913960400191505060405180910390fd5b6000831180156133445750600082115b61337f5760405162461bcd60e51b81526004018080602001828103825260238152602001806145a46023913960400191505060405180910390fd5b6000613393856103e563ffffffff6143a516565b905060006133a7828563ffffffff6143a516565b905060006133cd836133c1886103e863ffffffff6143a516565b9063ffffffff61440816565b90508082816133d857fe5b04979650505050505050565b6060600282511015613439576040805162461bcd60e51b81526020600482015260196024820152780a6eec2e098d2c4e4c2e4f27440929cac82989288bea082a89603b1b604482015290519081900360640190fd5b815167ffffffffffffffff8111801561345157600080fd5b5060405190808252806020026020018201604052801561347b578160200160208202803683370190505b509050828160008151811061348c57fe5b60200260200101818152505060005b6001835103811015613524576000806134de878685815181106134ba57fe5b60200260200101518786600101815181106134d157fe5b6020026020010151614457565b915091506135008484815181106134f157fe5b602002602001015183836132f4565b84846001018151811061350f57fe5b6020908102919091010152505060010161349b565b509392505050565b600080600061353b858561403d565b604080516bffffffffffffffffffffffff19606094851b811660208084019190915293851b81166034830152825160288184030181526048830184528051908501206001600160f81b031960688401529a90941b9093166069840152607d8301989098527f6b893ef59304506887e9286b4f0215d5d09a1314a6e1db41cdb1003a19f6ab55609d808401919091528851808403909101815260bd909201909752805196019590952095945050505050565b604080516001600160a01b0385811660248301528481166044830152606480830185905283518084039091018152608490920183526020820180516001600160e01b03166323b872dd60e01b17815292518251600094606094938a169392918291908083835b602083106136715780518252601f199092019160209182019101613652565b6001836020036101000a0380198251168184511680821785525050505050509050019150506000604051808303816000865af19150503d80600081146136d3576040519150601f19603f3d011682016040523d82523d6000602084013e6136d8565b606091505b5091509150818015613706575080511580613706575080806020019051602081101561370357600080fd5b50515b6137415760405162461bcd60e51b815260040180806020018281038252603181526020018061453f6031913960400191505060405180910390fd5b505050505050565b60005b60018351038110156139895760008084838151811061376757fe5b602002602001015185846001018151811061377e57fe5b6020026020010151915091506000613796838361403d565b50905060008785600101815181106137aa57fe5b60200260200101519050600080836001600160a01b0316866001600160a01b0316146137d8578260006137dc565b6000835b91509150600060028a510388106137f35788613834565b6138347f0000000000000000000000000000000000000000000000000000000000000000878c8b6002018151811061382757fe5b602002602001015161352c565b90506138617f0000000000000000000000000000000000000000000000000000000000000000888861352c565b6001600160a01b031663022c0d9f84848460006040519080825280601f01601f19166020018201604052801561389e576020820181803683370190505b506040518563ffffffff1660e01b815260040180858152602001848152602001836001600160a01b03166001600160a01b0316815260200180602001828103825283818151815260200191508051906020019080838360005b8381101561390f5781810151838201526020016138f7565b50505050905090810190601f16801561393c5780820380516001836020036101000a031916815260200191505b5095505050505050600060405180830381600087803b15801561395e57600080fd5b505af1158015613972573d6000803e3d6000fd5b50506001909901985061374c975050505050505050565b50505050565b6001600160a01b0381166000908152602081905260409020805460010190819055600314156139f957604080516003815290516001600160a01b038316917f9148c761c64f7aeea07a2f8d76270db64279d1073a5b4743011e9f885cd34f8c919081900360200190a25b50565b6060600282511015613a51576040805162461bcd60e51b81526020600482015260196024820152780a6eec2e098d2c4e4c2e4f27440929cac82989288bea082a89603b1b604482015290519081900360640190fd5b815167ffffffffffffffff81118015613a6957600080fd5b50604051908082528060200260200182016040528015613a93578160200160208202803683370190505b5090508281600183510381518110613aa757fe5b60209081029190910101528151600019015b801561352457600080613ae987866001860381518110613ad557fe5b60200260200101518786815181106134d157fe5b91509150613b0b848481518110613afc57fe5b60200260200101518383613e8b565b846001850381518110613b1a57fe5b6020908102919091010152505060001901613ab9565b60005b60018351038110156132ef57600080848381518110613b4e57fe5b6020026020010151858460010181518110613b6557fe5b6020026020010151915091506000613b7d838361403d565b5090506000613bad7f0000000000000000000000000000000000000000000000000000000000000000858561352c565b9050600080600080846001600160a01b0316630902f1ac6040518163ffffffff1660e01b815260040160606040518083038186803b158015613bee57600080fd5b505afa158015613c02573d6000803e3d6000fd5b505050506040513d6060811015613c1857600080fd5b5080516020909101516001600160701b0391821693501690506000806001600160a01b038a811690891614613c4e578284613c51565b83835b91509150613caf828b6001600160a01b03166370a082318a6040518263ffffffff1660e01b815260040180826001600160a01b03166001600160a01b0316815260200191505060206040518083038186803b1580156118d557600080fd5b9550613cbc8683836132f4565b945050505050600080856001600160a01b0316886001600160a01b031614613ce657826000613cea565b6000835b91509150600060028c51038a10613d01578a613d35565b613d357f0000000000000000000000000000000000000000000000000000000000000000898e8d6002018151811061382757fe5b604080516000808252602082019283905263022c0d9f60e01b835260248201878152604483018790526001600160a01b038086166064850152608060848501908152845160a48601819052969750908c169563022c0d9f958a958a958a9591949193919260c486019290918190849084905b83811015613dbf578181015183820152602001613da7565b50505050905090810190601f168015613dec5780820380516001836020036101000a031916815260200191505b5095505050505050600060405180830381600087803b158015613e0e57600080fd5b505af1158015613e22573d6000803e3d6000fd5b50506001909b019a50613b339950505050505050505050565b808203828111156111c8576040805162461bcd60e51b815260206004820152601560248201527464732d6d6174682d7375622d756e646572666c6f7760581b604482015290519081900360640190fd5b6000808411613ecb5760405162461bcd60e51b81526004018080602001828103825260278152602001806146346027913960400191505060405180910390fd5b600083118015613edb5750600082115b613f165760405162461bcd60e51b81526004018080602001828103825260238152602001806145a46023913960400191505060405180910390fd5b6000613f3a6103e8613f2e868863ffffffff6143a516565b9063ffffffff6143a516565b90506000613f546103e5613f2e868963ffffffff613e3b16565b9050613f716001828481613f6457fe5b049063ffffffff61440816565b9695505050505050565b6000808411613fd1576040805162461bcd60e51b815260206004820181905260248201527f537761704c6962726172793a20494e53554646494349454e545f414d4f554e54604482015290519081900360640190fd5b600083118015613fe15750600082115b61401c5760405162461bcd60e51b81526004018080602001828103825260238152602001806145a46023913960400191505060405180910390fd5b8261402d858463ffffffff6143a516565b8161403457fe5b04949350505050565b600080826001600160a01b0316846001600160a01b031614156140a7576040805162461bcd60e51b815260206004820181905260248201527f537761704c6962726172793a204944454e544943414c5f414444524553534553604482015290519081900360640190fd5b826001600160a01b0316846001600160a01b0316106140c75782846140ca565b83835b90925090506001600160a01b03821661412a576040805162461bcd60e51b815260206004820152601960248201527f537761704c6962726172793a205a45524f5f4144445245535300000000000000604482015290519081900360640190fd5b9250929050565b6040805163e6a4390560e01b81526001600160a01b03888116600483015287811660248301529151600092839283927f00000000000000000000000000000000000000000000000000000000000000009092169163e6a4390591604480820192602092909190829003018186803b1580156141ab57600080fd5b505afa1580156141bf573d6000803e3d6000fd5b505050506040513d60208110156141d557600080fd5b50516001600160a01b0316141561428857604080516364e329cb60e11b81526001600160a01b038a81166004830152898116602483015291517f00000000000000000000000000000000000000000000000000000000000000009092169163c9c65396916044808201926020929091908290030181600087803b15801561425b57600080fd5b505af115801561426f573d6000803e3d6000fd5b505050506040513d602081101561428557600080fd5b50505b6000806142b67f00000000000000000000000000000000000000000000000000000000000000008b8b614457565b915091508160001480156142c8575080155b156142d857879350869250614398565b60006142e5898484613f7b565b9050878111614338578581101561432d5760405162461bcd60e51b81526004018080602001828103825260218152602001806145ed6021913960400191505060405180910390fd5b889450925082614396565b6000614345898486613f7b565b90508981111561435157fe5b878110156143905760405162461bcd60e51b81526004018080602001828103825260218152602001806146ca6021913960400191505060405180910390fd5b94508793505b505b5050965096945050505050565b60008115806143c0575050808202828282816143bd57fe5b04145b6111c8576040805162461bcd60e51b815260206004820152601460248201527364732d6d6174682d6d756c2d6f766572666c6f7760601b604482015290519081900360640190fd5b808201828110156111c8576040805162461bcd60e51b815260206004820152601460248201527364732d6d6174682d6164642d6f766572666c6f7760601b604482015290519081900360640190fd5b6000806000614466858561403d565b50905060008061447788888861352c565b6001600160a01b0316630902f1ac6040518163ffffffff1660e01b815260040160606040518083038186803b1580156144af57600080fd5b505afa1580156144c3573d6000803e3d6000fd5b505050506040513d60608110156144d957600080fd5b5080516020909101516001600160701b0391821693501690506001600160a01b038781169084161461450c57808261450f565b81815b9099909850965050505050505056fe53776170526f757465723a20494e56414c49445f5041544800000000000000005472616e7366657248656c7065723a3a7472616e7366657246726f6d3a207472616e7366657246726f6d206661696c65645472616e7366657248656c7065723a3a736166655472616e736665724554483a20455448207472616e73666572206661696c6564537761704c6962726172793a20494e53554646494349454e545f4c4951554944495459537761704c6962726172793a20494e53554646494349454e545f494e5055545f414d4f554e5453776170526f757465723a20494e53554646494349454e545f425f414d4f554e5453776170526f757465723a20494e53554646494349454e545f4f55545055545f414d4f554e54537761704c6962726172793a20494e53554646494349454e545f4f55545055545f414d4f554e5453776170526f757465723a2045585049524544000000000000000000000000005472616e7366657248656c7065723a3a736166655472616e736665723a207472616e73666572206661696c656453776170526f757465723a204558434553534956455f494e5055545f414d4f554e5453776170526f757465723a20494e53554646494349454e545f415f414d4f554e54a2646970667358221220a520fda5766e9c766c84e30324024f4ceed7be256d8e0c95cd82f209dc0e0d8a64736f6c63430006060033",
  "linkReferences": {},
  "deployedLinkReferences": {}
}