{
  "_format": "hh-sol-artifact-1",
  "contractName": "BeraStakingPoolInitializable",
  "sourceName": "contracts/MonadStakingPoolIntitalizable.js.sol",
  "abi": [
    {
      "inputs": [],
      "stateMutability": "nonpayable",
      "type": "constructor"
    },
    {
      "inputs": [],
      "name": "ReentrancyGuardReentrantCall",
      "type": "error"
    },
    {
      "anonymous": false,
      "inputs": [
        {
          "indexed": false,
          "internalType": "address",
          "name": "tokenRecovered",
          "type": "address"
        },
        {
          "indexed": false,
          "internalType": "uint256",
          "name": "amount",
          "type": "uint256"
        }
      ],
      "name": "AdminTokenRecovery",
      "type": "event"
    },
    {
      "anonymous": false,
      "inputs": [
        {
          "indexed": true,
          "internalType": "address",
          "name": "user",
          "type": "address"
        },
        {
          "indexed": false,
          "internalType": "uint256",
          "name": "amount",
          "type": "uint256"
        }
      ],
      "name": "Deposit",
      "type": "event"
    },
    {
      "anonymous": false,
      "inputs": [
        {
          "indexed": true,
          "internalType": "address",
          "name": "user",
          "type": "address"
        },
        {
          "indexed": false,
          "internalType": "uint256",
          "name": "amount",
          "type": "uint256"
        }
      ],
      "name": "EmergencyWithdraw",
      "type": "event"
    },
    {
      "anonymous": false,
      "inputs": [
        {
          "indexed": false,
          "internalType": "uint256",
          "name": "poolLimitPerUser",
          "type": "uint256"
        }
      ],
      "name": "NewPoolLimit",
      "type": "event"
    },
    {
      "anonymous": false,
      "inputs": [
        {
          "indexed": false,
          "internalType": "uint256",
          "name": "startTimestamp",
          "type": "uint256"
        },
        {
          "indexed": false,
          "internalType": "uint256",
          "name": "endBlock",
          "type": "uint256"
        }
      ],
      "name": "NewStartAndEndBlocks",
      "type": "event"
    },
    {
      "anonymous": false,
      "inputs": [
        {
          "indexed": false,
          "internalType": "uint256",
          "name": "rewardPerSecond",
          "type": "uint256"
        }
      ],
      "name": "NewrewardPerSecond",
      "type": "event"
    },
    {
      "anonymous": false,
      "inputs": [
        {
          "indexed": true,
          "internalType": "address",
          "name": "previousOwner",
          "type": "address"
        },
        {
          "indexed": true,
          "internalType": "address",
          "name": "newOwner",
          "type": "address"
        }
      ],
      "name": "OwnershipTransferred",
      "type": "event"
    },
    {
      "anonymous": false,
      "inputs": [
        {
          "indexed": false,
          "internalType": "uint256",
          "name": "blockNumber",
          "type": "uint256"
        }
      ],
      "name": "RewardsStop",
      "type": "event"
    },
    {
      "anonymous": false,
      "inputs": [
        {
          "indexed": true,
          "internalType": "address",
          "name": "user",
          "type": "address"
        },
        {
          "indexed": false,
          "internalType": "uint256",
          "name": "amount",
          "type": "uint256"
        }
      ],
      "name": "Withdraw",
      "type": "event"
    },
    {
      "inputs": [],
      "name": "PRECISION_FACTOR",
      "outputs": [
        {
          "internalType": "uint256",
          "name": "",
          "type": "uint256"
        }
      ],
      "stateMutability": "view",
      "type": "function"
    },
    {
      "inputs": [],
      "name": "SOUS_CHEF_FACTORY",
      "outputs": [
        {
          "internalType": "address",
          "name": "",
          "type": "address"
        }
      ],
      "stateMutability": "view",
      "type": "function"
    },
    {
      "inputs": [],
      "name": "accTokenPerShare",
      "outputs": [
        {
          "internalType": "uint256",
          "name": "",
          "type": "uint256"
        }
      ],
      "stateMutability": "view",
      "type": "function"
    },
    {
      "inputs": [],
      "name": "bonusEndTimestamp",
      "outputs": [
        {
          "internalType": "uint256",
          "name": "",
          "type": "uint256"
        }
      ],
      "stateMutability": "view",
      "type": "function"
    },
    {
      "inputs": [
        {
          "internalType": "uint256",
          "name": "_amount",
          "type": "uint256"
        }
      ],
      "name": "deposit",
      "outputs": [],
      "stateMutability": "nonpayable",
      "type": "function"
    },
    {
      "inputs": [
        {
          "internalType": "uint256",
          "name": "_amount",
          "type": "uint256"
        }
      ],
      "name": "emergencyRewardWithdraw",
      "outputs": [],
      "stateMutability": "nonpayable",
      "type": "function"
    },
    {
      "inputs": [],
      "name": "emergencyWithdraw",
      "outputs": [],
      "stateMutability": "nonpayable",
      "type": "function"
    },
    {
      "inputs": [],
      "name": "hasUserLimit",
      "outputs": [
        {
          "internalType": "bool",
          "name": "",
          "type": "bool"
        }
      ],
      "stateMutability": "view",
      "type": "function"
    },
    {
      "inputs": [
        {
          "internalType": "contract IERC20",
          "name": "_stakedToken",
          "type": "address"
        },
        {
          "internalType": "contract IERC20",
          "name": "_rewardToken",
          "type": "address"
        },
        {
          "internalType": "uint256",
          "name": "_rewardPerSecond",
          "type": "uint256"
        },
        {
          "internalType": "uint256",
          "name": "_startTimestamp",
          "type": "uint256"
        },
        {
          "internalType": "uint256",
          "name": "_bonusEndTimestamp",
          "type": "uint256"
        },
        {
          "internalType": "uint256",
          "name": "_poolLimitPerUser",
          "type": "uint256"
        },
        {
          "internalType": "address",
          "name": "_admin",
          "type": "address"
        }
      ],
      "name": "initialize",
      "outputs": [],
      "stateMutability": "nonpayable",
      "type": "function"
    },
    {
      "inputs": [],
      "name": "isInitialized",
      "outputs": [
        {
          "internalType": "bool",
          "name": "",
          "type": "bool"
        }
      ],
      "stateMutability": "view",
      "type": "function"
    },
    {
      "inputs": [],
      "name": "lastRewardTimestamp",
      "outputs": [
        {
          "internalType": "uint256",
          "name": "",
          "type": "uint256"
        }
      ],
      "stateMutability": "view",
      "type": "function"
    },
    {
      "inputs": [],
      "name": "owner",
      "outputs": [
        {
          "internalType": "address",
          "name": "",
          "type": "address"
        }
      ],
      "stateMutability": "view",
      "type": "function"
    },
    {
      "inputs": [
        {
          "internalType": "address",
          "name": "_user",
          "type": "address"
        }
      ],
      "name": "pendingReward",
      "outputs": [
        {
          "internalType": "uint256",
          "name": "",
          "type": "uint256"
        }
      ],
      "stateMutability": "view",
      "type": "function"
    },
    {
      "inputs": [],
      "name": "poolLimitPerUser",
      "outputs": [
        {
          "internalType": "uint256",
          "name": "",
          "type": "uint256"
        }
      ],
      "stateMutability": "view",
      "type": "function"
    },
    {
      "inputs": [
        {
          "internalType": "address",
          "name": "_token",
          "type": "address"
        }
      ],
      "name": "recoverWrongTokens",
      "outputs": [],
      "stateMutability": "nonpayable",
      "type": "function"
    },
    {
      "inputs": [],
      "name": "renounceOwnership",
      "outputs": [],
      "stateMutability": "nonpayable",
      "type": "function"
    },
    {
      "inputs": [],
      "name": "rewardPerSecond",
      "outputs": [
        {
          "internalType": "uint256",
          "name": "",
          "type": "uint256"
        }
      ],
      "stateMutability": "view",
      "type": "function"
    },
    {
      "inputs": [],
      "name": "rewardToken",
      "outputs": [
        {
          "internalType": "contract IERC20",
          "name": "",
          "type": "address"
        }
      ],
      "stateMutability": "view",
      "type": "function"
    },
    {
      "inputs": [],
      "name": "stakedToken",
      "outputs": [
        {
          "internalType": "contract IERC20",
          "name": "",
          "type": "address"
        }
      ],
      "stateMutability": "view",
      "type": "function"
    },
    {
      "inputs": [],
      "name": "startTimestamp",
      "outputs": [
        {
          "internalType": "uint256",
          "name": "",
          "type": "uint256"
        }
      ],
      "stateMutability": "view",
      "type": "function"
    },
    {
      "inputs": [],
      "name": "stopReward",
      "outputs": [],
      "stateMutability": "nonpayable",
      "type": "function"
    },
    {
      "inputs": [
        {
          "internalType": "address",
          "name": "newOwner",
          "type": "address"
        }
      ],
      "name": "transferOwnership",
      "outputs": [],
      "stateMutability": "nonpayable",
      "type": "function"
    },
    {
      "inputs": [
        {
          "internalType": "bool",
          "name": "_hasUserLimit",
          "type": "bool"
        },
        {
          "internalType": "uint256",
          "name": "_poolLimitPerUser",
          "type": "uint256"
        }
      ],
      "name": "updatePoolLimitPerUser",
      "outputs": [],
      "stateMutability": "nonpayable",
      "type": "function"
    },
    {
      "inputs": [
        {
          "internalType": "uint256",
          "name": "_startTimestamp",
          "type": "uint256"
        },
        {
          "internalType": "uint256",
          "name": "_bonusEndTimestamp",
          "type": "uint256"
        }
      ],
      "name": "updateStartAndEndBlocks",
      "outputs": [],
      "stateMutability": "nonpayable",
      "type": "function"
    },
    {
      "inputs": [
        {
          "internalType": "uint256",
          "name": "_rewardPerSecond",
          "type": "uint256"
        }
      ],
      "name": "updaterewardPerSecond",
      "outputs": [],
      "stateMutability": "nonpayable",
      "type": "function"
    },
    {
      "inputs": [
        {
          "internalType": "address",
          "name": "",
          "type": "address"
        }
      ],
      "name": "userInfo",
      "outputs": [
        {
          "internalType": "uint256",
          "name": "amount",
          "type": "uint256"
        },
        {
          "internalType": "uint256",
          "name": "rewardDebt",
          "type": "uint256"
        }
      ],
      "stateMutability": "view",
      "type": "function"
    },
    {
      "inputs": [
        {
          "internalType": "uint256",
          "name": "_amount",
          "type": "uint256"
        }
      ],
      "name": "withdraw",
      "outputs": [],
      "stateMutability": "nonpayable",
      "type": "function"
    }
  ],
  "bytecode": "0x60a060405234801561001057600080fd5b50600080546001600160a01b031916339081178255604051909182917f8be0079c531659141344cd1fd0a4f28419497f9722a3daafe3b4186f6b6457e0908290a35060018055336080526080516119d561007c60003960008181610308015261080701526119d56000f3fe608060405234801561001057600080fd5b50600436106101a95760003560e01c80639513997f116100f9578063db2e21bc11610097578063f2fde38b11610071578063f2fde38b14610373578063f40f0f5214610386578063f7c618c114610399578063f8077fae146103ac57600080fd5b8063db2e21bc14610359578063e4a337f314610361578063e6fd48bc1461036a57600080fd5b8063c3feaf14116100d3578063c3feaf1414610303578063cc7a262e1461032a578063ccd34cd51461033d578063ce29882a1461034657600080fd5b80639513997f146102ca578063a0b40905146102dd578063b6b55f25146102f057600080fd5b8063746268cc116101665780638da5cb5b116101405780638da5cb5b146102865780638f10369a146102ab5780638f662915146102b457806392e8990e146102bd57600080fd5b8063746268cc1461025857806380dc06721461026b57806383a5041c1461027357600080fd5b80631959a002146101ae5780632e1a7d4d146101ef5780633279beab14610204578063392e53cd1461021757806366fe9f8a14610239578063715018a614610250575b600080fd5b6101d56101bc366004611635565b600c602052600090815260409020805460019091015482565b604080519283526020830191909152015b60405180910390f35b6102026101fd366004611652565b6103b5565b005b610202610212366004611652565b610509565b60025461022990610100900460ff1681565b60405190151581526020016101e6565b61024260075481565b6040519081526020016101e6565b61020261054a565b610202610266366004611635565b6105be565b61020261077e565b61020261028136600461166b565b6107ae565b6000546001600160a01b03165b6040516001600160a01b0390911681526020016101e6565b61024260085481565b61024260035481565b6002546102299060ff1681565b6102026102d83660046116dd565b6109b7565b6102026102eb36600461170d565b610b40565b6102026102fe366004611652565b610c52565b6102937f000000000000000000000000000000000000000000000000000000000000000081565b600b54610293906001600160a01b031681565b61024260095481565b610202610354366004611652565b610daf565b610202610e58565b61024260045481565b61024260055481565b610202610381366004611635565b610ede565b610242610394366004611635565b610f11565b600a54610293906001600160a01b031681565b61024260065481565b6103bd611061565b336000908152600c6020526040902080548211156104225760405162461bcd60e51b815260206004820152601b60248201527f416d6f756e7420746f20776974686472617720746f6f2068696768000000000060448201526064015b60405180910390fd5b61042a61108b565b600081600101546009546003548460000154610446919061174f565b6104509190611766565b61045a9190611788565b9050821561048857815461046f908490611788565b8255600b54610488906001600160a01b03163385611168565b80156104a557600a546104a5906001600160a01b03163383611168565b60095460035483546104b7919061174f565b6104c19190611766565b600183015560405183815233907f884edad9ce6fa2440d8a54cc123490eb96d2768479d49ff9c7366125a94243649060200160405180910390a2505061050660018055565b50565b6000546001600160a01b031633146105335760405162461bcd60e51b81526004016104199061179b565b600a54610506906001600160a01b03163383611168565b6000546001600160a01b031633146105745760405162461bcd60e51b81526004016104199061179b565b600080546040516001600160a01b03909116907f8be0079c531659141344cd1fd0a4f28419497f9722a3daafe3b4186f6b6457e0908390a3600080546001600160a01b0319169055565b6000546001600160a01b031633146105e85760405162461bcd60e51b81526004016104199061179b565b600a546001600160a01b03908116908216036106565760405162461bcd60e51b815260206004820152602760248201527f4f7065726174696f6e733a2043616e6e6f74207265636f76657220726577617260448201526632103a37b5b2b760c91b6064820152608401610419565b6040516370a0823160e01b81523060048201526000906001600160a01b038316906370a0823190602401602060405180830381865afa15801561069d573d6000803e3d6000fd5b505050506040513d601f19601f820116820180604052508101906106c191906117d0565b9050806000036107235760405162461bcd60e51b815260206004820152602760248201527f4f7065726174696f6e733a2043616e6e6f74207265636f766572207a65726f2060448201526662616c616e636560c81b6064820152608401610419565b6107376001600160a01b0383163383611168565b604080516001600160a01b0384168152602081018390527f74545154aac348a3eac92596bd1971957ca94795f4e954ec5f613b55fab7812991015b60405180910390a15050565b6000546001600160a01b031633146107a85760405162461bcd60e51b81526004016104199061179b565b42600455565b600254610100900460ff16156107fc5760405162461bcd60e51b8152602060048201526013602482015272105b1c9958591e481a5b9a5d1a585b1a5e9959606a1b6044820152606401610419565b336001600160a01b037f000000000000000000000000000000000000000000000000000000000000000016146108625760405162461bcd60e51b815260206004820152600b60248201526a4e6f7420666163746f727960a81b6044820152606401610419565b6002805461ff001916610100179055600b80546001600160a01b03808a166001600160a01b031992831617909255600a80549289169290911691909117905560088590556005849055600483905581156108c9576002805460ff1916600117905560078290555b600a546040805163313ce56760e01b815290516000926001600160a01b03169163313ce5679160048083019260209291908290030181865afa158015610913573d6000803e3d6000fd5b505050506040513d601f19601f8201168201806040525081019061093791906117e9565b60ff169050601e81106109855760405162461bcd60e51b815260206004820152601660248201527504d75737420626520696e666572696f7220746f2033360541b6044820152606401610419565b61099081601e611788565b61099b90600a6118f0565b6009556005546006556109ad82610ede565b5050505050505050565b6000546001600160a01b031633146109e15760405162461bcd60e51b81526004016104199061179b565b6005544210610a255760405162461bcd60e51b815260206004820152601060248201526f141bdbdb081a185cc81cdd185c9d195960821b6044820152606401610419565b808210610a8f5760405162461bcd60e51b815260206004820152603260248201527f4e657720737461727454696d657374616d70206d757374206265206c6f776572604482015271207468616e206e657720656e64426c6f636b60701b6064820152608401610419565b814210610afb5760405162461bcd60e51b815260206004820152603460248201527f4e657720737461727454696d657374616d70206d75737420626520686967686560448201527372207468616e2063757272656e7420626c6f636b60601b6064820152608401610419565b60058290556004819055600682905560408051838152602081018390527f7cd0ab87d19036f3dfadadb232c78aa4879dda3f0c994a9d637532410ee2ce069101610772565b6000546001600160a01b03163314610b6a5760405162461bcd60e51b81526004016104199061179b565b60025460ff16610baa5760405162461bcd60e51b815260206004820152600b60248201526a135d5cdd081899481cd95d60aa1b6044820152606401610419565b8115610c0b576007548111610c015760405162461bcd60e51b815260206004820152601860248201527f4e6577206c696d6974206d7573742062652068696768657200000000000000006044820152606401610419565b6007819055610c1f565b6002805460ff191683151517905560006007555b7f241f67ee5f41b7a5cabf911367329be7215900f602ebfc47f89dce2a6bcd847c60075460405161077291815260200190565b610c5a611061565b336000908152600c6020526040902060025460ff1615610cd1576007548154610c8390846118fc565b1115610cd15760405162461bcd60e51b815260206004820152601b60248201527f4465706f7369743a20416d6f756e742061626f7665206c696d697400000000006044820152606401610419565b610cd961108b565b805415610d3157600081600101546009546003548460000154610cfc919061174f565b610d069190611766565b610d109190611788565b90508015610d2f57600a54610d2f906001600160a01b03163383611168565b505b8115610d4f57610d40826111d0565b8154610d4c91906118fc565b81555b6009546003548254610d61919061174f565b610d6b9190611766565b600182015560405182815233907fe1fffcc4923d04b559f4d29a8bfc6cda04eb5b0d3c460751c2402c5c5cc9109c9060200160405180910390a25061050660018055565b6000546001600160a01b03163314610dd95760405162461bcd60e51b81526004016104199061179b565b6005544210610e1d5760405162461bcd60e51b815260206004820152601060248201526f141bdbdb081a185cc81cdd185c9d195960821b6044820152606401610419565b60088190556040518181527f0a528b36eb52c3e6c76db69cf6253f79554bcfacbf3ecce151f925deb0d0f5059060200160405180910390a150565b610e60611061565b336000908152600c6020526040812080548282556001820192909255908015610e9a57600b54610e9a906001600160a01b03163383611168565b815460405190815233907f5fafa99d0643513820be26656b45130b01e1c03062e1266bf36f88cbd3bd96959060200160405180910390a25050610edc60018055565b565b6000546001600160a01b03163314610f085760405162461bcd60e51b81526004016104199061179b565b610506816112d9565b6001600160a01b038181166000908152600c6020526040808220600b5491516370a0823160e01b8152306004820152929390928492909116906370a0823190602401602060405180830381865afa158015610f70573d6000803e3d6000fd5b505050506040513d601f19601f82011682018060405250810190610f9491906117d0565b905060065442118015610fa657508015155b1561102e576000610fb960065442611399565b9050600060085482610fcb919061174f565b905060008360095483610fde919061174f565b610fe89190611766565b600354610ff591906118fc565b9050846001015460095482876000015461100f919061174f565b6110199190611766565b6110239190611788565b979650505050505050565b60018201546009546003548454611045919061174f565b61104f9190611766565b6110599190611788565b949350505050565b60026001540361108457604051633ee5aeb560e01b815260040160405180910390fd5b6002600155565b600654421161109657565b600b546040516370a0823160e01b81523060048201526000916001600160a01b0316906370a0823190602401602060405180830381865afa1580156110df573d6000803e3d6000fd5b505050506040513d601f19601f8201168201806040525081019061110391906117d0565b905080600003611114575042600655565b600061112260065442611399565b9050600060085482611134919061174f565b90508260095482611145919061174f565b61114f9190611766565b60035461115c91906118fc565b60035550504260065550565b6040516001600160a01b0383166024820152604481018290526111cb90849063a9059cbb60e01b906064015b60408051601f198184030181529190526020810180516001600160e01b03166001600160e01b0319909316929092179091526113da565b505050565b600b546040516370a0823160e01b815230600482015260009182916001600160a01b03909116906370a0823190602401602060405180830381865afa15801561121d573d6000803e3d6000fd5b505050506040513d601f19601f8201168201806040525081019061124191906117d0565b600b5490915061125c906001600160a01b03163330866114ac565b600b546040516370a0823160e01b815230600482015282916001600160a01b0316906370a0823190602401602060405180830381865afa1580156112a4573d6000803e3d6000fd5b505050506040513d601f19601f820116820180604052508101906112c891906117d0565b6112d29190611788565b9392505050565b6001600160a01b03811661133e5760405162461bcd60e51b815260206004820152602660248201527f4f776e61626c653a206e6577206f776e657220697320746865207a65726f206160448201526564647265737360d01b6064820152608401610419565b600080546040516001600160a01b03808516939216917f8be0079c531659141344cd1fd0a4f28419497f9722a3daafe3b4186f6b6457e091a3600080546001600160a01b0319166001600160a01b0392909216919091179055565b600060045482116113b5576113ae8383611788565b90506113d4565b60045483106113c6575060006113d4565b826004546113ae9190611788565b92915050565b600061142f826040518060400160405280602081526020017f5361666545524332303a206c6f772d6c6576656c2063616c6c206661696c6564815250856001600160a01b03166114ea9092919063ffffffff16565b8051909150156111cb578080602001905181019061144d919061190f565b6111cb5760405162461bcd60e51b815260206004820152602a60248201527f5361666545524332303a204552433230206f7065726174696f6e20646964206e6044820152691bdd081cdd58d8d9595960b21b6064820152608401610419565b6040516001600160a01b03808516602483015283166044820152606481018290526114e49085906323b872dd60e01b90608401611194565b50505050565b6060611059848460008560606114ff856115e7565b61154b5760405162461bcd60e51b815260206004820152601d60248201527f416464726573733a2063616c6c20746f206e6f6e2d636f6e74726163740000006044820152606401610419565b600080866001600160a01b031685876040516115679190611950565b60006040518083038185875af1925050503d80600081146115a4576040519150601f19603f3d011682016040523d82523d6000602084013e6115a9565b606091505b509150915081156115bd5791506110599050565b8051156115cd5780518082602001fd5b8360405162461bcd60e51b8152600401610419919061196c565b6000813f7fc5d2460186f7233c927e7db2dcc703c0e500b653ca82273b7bfad8045d85a470818114801590611059575050151592915050565b6001600160a01b038116811461050657600080fd5b60006020828403121561164757600080fd5b81356112d281611620565b60006020828403121561166457600080fd5b5035919050565b600080600080600080600060e0888a03121561168657600080fd5b873561169181611620565b965060208801356116a181611620565b955060408801359450606088013593506080880135925060a0880135915060c08801356116cd81611620565b8091505092959891949750929550565b600080604083850312156116f057600080fd5b50508035926020909101359150565b801515811461050657600080fd5b6000806040838503121561172057600080fd5b823561172b816116ff565b946020939093013593505050565b634e487b7160e01b600052601160045260246000fd5b80820281158282048414176113d4576113d4611739565b60008261178357634e487b7160e01b600052601260045260246000fd5b500490565b818103818111156113d4576113d4611739565b6020808252818101527f4f776e61626c653a2063616c6c6572206973206e6f7420746865206f776e6572604082015260600190565b6000602082840312156117e257600080fd5b5051919050565b6000602082840312156117fb57600080fd5b815160ff811681146112d257600080fd5b600181815b8085111561184757816000190482111561182d5761182d611739565b8085161561183a57918102915b93841c9390800290611811565b509250929050565b60008261185e575060016113d4565b8161186b575060006113d4565b8160018114611881576002811461188b576118a7565b60019150506113d4565b60ff84111561189c5761189c611739565b50506001821b6113d4565b5060208310610133831016604e8410600b84101617156118ca575081810a6113d4565b6118d4838361180c565b80600019048211156118e8576118e8611739565b029392505050565b60006112d2838361184f565b808201808211156113d4576113d4611739565b60006020828403121561192157600080fd5b81516112d2816116ff565b60005b8381101561194757818101518382015260200161192f565b50506000910152565b6000825161196281846020870161192c565b9190910192915050565b602081526000825180602084015261198b81604085016020870161192c565b601f01601f1916919091016040019291505056fea26469706673582212203376bcc04200daf1018312f0aa8a8f8aff6309d9d2828738c1ef58f104af061b64736f6c63430008140033",
  "linkReferences": {},
  "deployedLinkReferences": {}
}